:1000000013000000130000001300000013000000A4
:10001000130000006F0040009300000013810000F7
:10002000938100001382000093820000138300007C
:100030009383000013840000938400001385000064
:10004000938500001386000093860000138700004C
:100050009387000013880000938800001389000034
:1000600093890000138A0000938A0000138B00001C
:10007000938B0000138C0000938C0000138D000004
:10008000938D0000138E0000938E0000138F0000EC
:10009000938F0000B702C0009382C20003A1020048
:0800A000EF0080007300100066
:1000A800130101FE232E810013040102B707C000CB
:1000B8009387470083A707002324F4FEB707C000EF
:1000C80083A707002322F4FE232604FE032744FE09
:1000D800930740006312F702B7270003938787014D
:1000E8000327C4FE23A0E7008327C4FE93871700D5
:0C00F8002326F4FE6FF05FFE6F00000096
:04000003000000A851
:00000001FF
