:1000000013000000130000001300000013000000A4
:10001000130000006F0040009300000013810000F7
:10002000938100001382000093820000138300007C
:100030009383000013840000938400001385000064
:10004000938500001386000093860000138700004C
:100050009387000013880000938800001389000034
:1000600093890000138A0000938A0000138B00001C
:10007000938B0000138C0000938C0000138D000004
:10008000938D0000138E0000938E0000138F0000EC
:10009000938F0000B702C0009382C20003A1020048
:0800A000EF0080007300100066
:1000A800130101FB2326810413040105B707C000CF
:1000B80083A707002328F4FC930710002326F4FEE7
:1000C800232404FE9307F03F2322F4FE232604FC96
:1000D800232004FE93071000232EF4FC930700202E
:1000E800232CF4FC232A04FC9307E007232AF4FAC0
:1000F8009307D007232CF4FA9307B007232EF4FABA
:10010800930770072320F4FC9307F0062322F4FCDE
:100118009307F0052324F4FC032704FD930740000C
:10012800630AF700032704FD930780006304F7348C
:100138006F00403DB72700039387470283A7070056
:10014800639C0706930710002326F4FE9307F03FED
:100158002322F4FE232604FC93071000232EF4FC2C
:1001680093070020232CF4FC6F000001832784FEF2
:10017800938717002324F4FE032784FE930710684F
:10018800E3D6E7FEB727000393878701032704FE1A
:1001980023A0E700032704FE9307F03F6316F70048
:1001A800232004FE6F00C0009307F03F2320F4FED5
:1001B800232404FE6FF01FF8B72700039387470234
:1001C80003A7070093071000631CF7069307F03F87
:1001D8002322F4FE232604FC232004FE93071000A8
:1001E800232EF4FC93070020232CF4FC6F0000015D
:1001F800832784FE938717002324F4FE032784FEB5
:1002080093071068E3D6E7FEB727000393878701B3
:100218000327C4FE23A0E7008327C4FE93871700A3
:100228002326F4FE0327C4FE9307F03F6316F70066
:10023800930710002326F4FE232404FE6FF09FEF9B
:10024800B72700039387470203A7070093072000F7
:10025800631CF706930710002326F4FE9307F03F6C
:100268002322F4FE232604FC232004FE9307002007
:10027800232CF4FC6F000001832784FE938717006A
:100288002324F4FE032784FE93071068E3D6E7FED1
:10029800B7270003938787010327C4FD23A0E7003E
:1002A8008327C4FD93971700232EF4FC0327C4FD6E
:1002B8009307002063D6E70093071000232EF4FC71
:1002C800232404FE6FF01FE7B72700039387470234
:1002D80003A7070093073000631AF7069307100077
:1002E8002326F4FE232604FC232004FE9307100093
:1002F800232EF4FC93070020232CF4FC6F0000014C
:10030800832784FE938717002324F4FE032784FEA3
:1003180093071068E3D6E7FEB727000393878701A2
:10032800032744FE23A0E700832744FE9387F7FFB3
:100338002322F4FE832744FE639607009307F03FC9
:100348002322F4FE232404FE6FF0DFDEB727000328
:100358009387470203A7070093074000631EF70629
:10036800930710002326F4FE9307F03F2322F4FEA0
:10037800232604FC232004FE93071000232EF4FCFC
:100388006F000001832784FE938717002324F4FE5F
:10039800032784FE93071068E3D6E7FEB727000318
:1003A80093878701032784FD23A0E700832784FD23
:1003B80013D7F701B307F70093D71740232CF4FCA2
:1003C800832784FD6396070093070020232CF4FC01
:1003D800232404FE6FF01FD6B72700039387470234
:1003E80003A7070093075000E316F7D493071000FC
:1003F8002326F4FE9307F03F2322F4FE232004FE75
:1004080093071000232EF4FC93070020232CF4FC00
:100418006F000001832784FE938717002324F4FECE
:10042800032784FE9307301FE3D6E7FE832744FDA6
:1004380013871700232AE4FC372700039397270024
:10044800930604FFB387F60083A747FC2320F70031
:10045800032744FD9307500063D4E700232A04FCD4
:10046800232404FE6FF01FCD832784FE9387170093
:100478002324F4FE032784FE9307900FE3D6E7FEB8
:10048800B727000313874700832744FD9397270066
:10049800930604FFB387F60083A747FC2320F700E1
:1004A800B727000313878700832744FD9397270006
:1004B800930604FFB387F60083A747FC2320F700C1
:1004C800B72700031387C700832744FD93972700A6
:1004D800930604FFB387F60083A747FC2320F700A1
:1004E800832744FD93871700232AF4FC032744FD40
:1004F8009307500063D4E700232A04FC232404FE56
:080508006FF05FF76F000000C7
:04000003000000A851
:00000001FF
