:1000000013000000130000001300000013000000A4
:10001000130000006F0040009300000013810000F7
:10002000938100001382000093820000138300007C
:100030009383000013840000938400001385000064
:10004000938500001386000093860000138700004C
:100050009387000013880000938800001389000034
:1000600093890000138A0000938A0000138B00001C
:10007000938B0000138C0000938C0000138D000004
:10008000938D0000138E0000938E0000138F0000EC
:10009000938F0000B702C0009382C20003A1020048
:0800A000EF0090337300100023
:1000A800130101FD2326810213040103232EA4FC5E
:1000B800232CB4FC232AC4FC032784FD93070700E0
:1000C80093972700B387E700939767002326F4FEEA
:1000D800832744FD939727002324F4FE032784FEF7
:1000E8008327C4FE3307F700B7074003B307F700B9
:1000F8002322F4FE032784FE8327C4FE3307F70078
:10010800B707400393870714B307F7002320F4FECB
:100118008327C4FD13972700B717400093870790DC
:10012800B307F70003A70700832744FE23A0E700CF
:100138008327C4FD13972700B7174000938707A0AC
:10014800B307F70003A70700832704FE23A0E700EF
:10015800130000000324C10213010103678000009B
:10016800130101FD23261102232481021304010334
:10017800232EA4FC232604FE232404FE232204FEAB
:10018800B707C0009387072083A707002322F4FE40
:10019800B707C0009387472083A707002324F4FEEE
:1001A8006F00000C8327C4FE939727000327C4FD24
:1001B800B307F70003A707009307A000631AF70225
:1001C800232204FE832784FE938727002324F4FE3A
:1001D800032784FE930780076314F700232404FE93
:1001E8008327C4FE938717002326F4FE6F00400779
:1001F8008327C4FE939727000327C4FDB307F7009E
:1002080083A70700032784FE832644FE138606007F
:100218009305070013850700EFF09FE8832744FE46
:10022800938717002322F4FE032744FE9307000553
:100238006312F702232204FE832784FE9387270094
:100248002324F4FE032784FE930780076314F70032
:10025800232404FE8327C4FE938717002326F4FE75
:100268008327C4FE939727000327C4FDB307F7002D
:1002780083A70700E39807F2B707C0009387072012
:10028800032744FE23A0E700B707C0009387472051
:10029800032784FE23A0E700130000008320C10287
:1002A800032481021301010367800000130101FF89
:1002B8002326810013040101B7174000938747A044
:1002C80037273C661307078023A0E700B7174000CD
:1002D800938747B037876600130767E623A0E700D0
:1002E800B7174000938787A03727223E130707E0F8
:1002F80023A0E700B7174000938787B037271E0071
:100308001307E72323A0E700B71740009387079850
:1003180023A00700B7174000938707A823A007006A
:10032800B71740009387079B23A00700B717400023
:10033800938707AB37271E061307878123A0E7009B
:10034800B71740009387879B23A00700B717400083
:10035800938787AB372718001307078023A0E70088
:10036800B71740009387079C37476252130707C0A7
:1003780023A0E700B7174000938707AC37473C0036
:100388001307A76423A0E700B71740009387479C8B
:1003980037271C1A1307078023A0E700B717400068
:1003A800938747AC37277E001307878123A0E70090
:1003B800B71740009387879C37474240130707C009
:1003C80023A0E700B7174000938787AC37077E0064
:1003D8001307C72323A0E700B71740009387C79CDC
:1003E80037474240130707C023A0E700B71740006C
:1003F8009387C7AC37473C001307872323A0E70040
:10040800B71740009387079D3737282423A0E700B4
:10041800B7174000938707AD372720001307E70772
:1004280023A0E700B71740009387479D3787023E10
:10043800130707E023A0E700B7174000938747ADED
:1004480037473C001307072423A0E700B7174000ED
:100458009387879D37474202130707C023A0E70009
:10046800B7174000938787AD37473C001307E7234A
:1004780023A0E700B71740009387C79D3787403010
:10048800130707E023A0E700B71740009387C7AD1D
:10049800371708001307878023A0E700B717400025
:1004A8009387079E37474242130707C023A0E700F8
:1004B800B7174000938707AE37473C001307C72399
:1004C80023A0E700B71740009387479E374742426B
:1004D800130707C023A0E700B7174000938747AE6C
:1004E80037473E001307C70723A0E700B7174000A8
:1004F800938747A037273C661307078023A0E700A8
:10050800B7174000938747B037876600130767E639
:1005180023A0E700B7174000938787A03727223E1C
:10052800130707E023A0E700B7174000938787B0B9
:1005380037271E001307E72323A0E700B71740005B
:100548009387C7A037473E02130707C023A0E700D9
:10055800B71740009387C7B037473C00130727E019
:1005680023A0E700B7174000938707A137273E224B
:10057800130707E023A0E700B7174000938707B1E8
:1005880037471E00130727E223A0E700B7174000EC
:10059800938747A137870606130707E023A0E700DC
:1005A800B7174000938747B137077E001307E767FF
:1005B80023A0E700B7174000938787A1378706066F
:1005C800130707E023A0E700B7174000938787B118
:1005D800370706001307E76723A0E700B7174000AF
:1005E8009387C7A137473E02130707C023A0E70038
:1005F800B71740009387C7B137273C001307A723D5
:1006080023A0E700B7174000938707A237676666FD
:100618001307076023A0E700B7174000938707B2C6
:10062800376766001307E76723A0E700B71740009E
:10063800938747A237871818130707E023A0E70016
:10064800B7174000938747B237277E001307878183
:1006580023A0E700B7174000938787A23767606039
:1006680023A0E700B7174000938787B237677C005D
:100678001307676623A0E700B71740009387C7A250
:100688003747663E1307076023A0E700B717400007
:100698009387C7B2376746001307E76323A0E700CD
:1006A800B7174000938707A33707060613070760A5
:1006B80023A0E700B7174000938707B337077E00EA
:1006C8001307676023A0E700B7174000938747A385
:1006D8003747665A1307072023A0E700B7174000DB
:1006E800938747B3374742001307A72523A0E7009E
:1006F800B7174000938787A33767666E13070720ED
:1007080023A0E700B7174000938787B337674600F1
:100718001307676723A0E700B71740009387C7A3AD
:1007280037476666130707C023A0E700B7174000DE
:100738009387C7B337673C001307676623A0E700B2
:10074800B7174000938707A437476666130707E083
:1007580023A0E700B7174000938707B437070600C0
:100768001307E76323A0E700B7174000938747A460
:1007780037474242130707C023A0E700B7174000D6
:10078800938747B437677C001307272523A0E70022
:10079800B7174000938787A437476666130707E0B3
:1007A80023A0E700B7174000938787B43767660030
:1007B8001307E76323A0E700B71740009387C7A490
:1007C8003787061E130707C023A0E700B7174000A6
:1007D8009387C7B437673E001307870723A0E7004E
:1007E800B7174000938707A537871818130707E03E
:1007F80023A0E700B7174000938707B537271800ED
:100808001307878123A0E700B7174000938747A500
:10081800376766661307076023A0E700B71740002D
:10082800938747B537873C00130767E623A0E7009F
:10083800B7174000938787A5376766661307076071
:1008480023A0E700B7174000938787B537471800FC
:10085800130767C623A0E700B71740009387C7A50B
:10086800374742421307072023A0E700B717400085
:100878009387C7B5378742001307A7E523A0E7008A
:10088800B7174000938707A63767663C13070760CA
:1008980023A0E700B7174000938707B637676600BD
:1008A8001307C76323A0E700B7174000938747A63D
:1008B8003767663C1307076023A0E700B7174000B7
:1008C800938747B6372718001307878123A0E700C7
:1008D800B7174000938787A637872010130707E0CC
:1008E80023A0E700B7174000938787B637077E0035
:1008F8001307874023A0E700130000000324C1006A
:100908001301010167800000130101FE232E11006D
:10091800232C8100130401022326A4FE1306F000F1
:100928008325C4FE13058004EFF08FF7130600013A
:100938008325C4FE13055004EFF08FF6130610014B
:100948008325C4FE1305C004EFF08FF513062001BC
:100958008325C4FE1305C004EFF08FF4130630019D
:100968008325C4FE1305F004EFF08FF3130640014E
:100978008325C4FE13050002EFF08FF21306500121
:100988008325C4FE13057005EFF08FF1130660018F
:100998008325C4FE1305F004EFF08FF013067001F1
:1009A8008325C4FE13052005EFF08FEF13068001A1
:1009B8008325C4FE1305C004EFF08FEE13069001E3
:1009C8008325C4FE13054004EFF08FED1306A00144
:1009D8008325C4FE1305E002EFF08FEC1306B00187
:1009E8008325C4FE13050002EFF08FEB1306C00148
:1009F8008325C4FE13056004EFF08FEA1306D001C7
:100A08008325C4FE13052005EFF08FE91306E001E6
:100A18008325C4FE1305F004EFF08FE81306F001F8
:100A28008325C4FE1305D004EFF08FE713060002F8
:100A38008325C4FE13050002EFF08FE613061002AB
:100A48008325C4FE13050002EFF08FE5130620028C
:100A58008325C4FE13054005EFF08FE4130630022A
:100A68008325C4FE13058004EFF08FE313064002CC
:100A78008325C4FE13052005EFF08FE2130650020C
:100A88008325C4FE13055004EFF08FE113066002BE
:100A98008325C4FE13051004EFF08FE013067002DF
:100AA8008325C4FE13054004EFF08FDF1306800290
:100AB8008325C4FE13050002EFF08FDEB707C000E0
:100AC80003A7070093074000631AF7001306900274
:100AD8008325C4FE13050003EFF08FDCB707C000C1
:100AE80003A7070093075000631AF7001306900244
:100AF8008325C4FE13051003EFF08FDAB707C00093
:100B080003A7070093076000631AF7001306900213
:100B18008325C4FE13052003EFF08FD8B707C00064
:100B280003A7070093077000631AF70013069002E3
:100B38008325C4FE13053003EFF08FD6B707C00036
:100B480003A7070093078000631AF70013069002B3
:100B58008325C4FE13054003EFF08FD4B707C00008
:100B680003A7070093079000631AF7001306900283
:100B78008325C4FE13055003EFF08FD2B707C000DA
:100B880003A707009307A000631AF7001306900253
:100B98008325C4FE13056003EFF08FD0B707C000AC
:100BA80003A707009307B000631AF7001306900223
:100BB8008325C4FE13057003EFF08FCE13000000E9
:100BC8008320C10103248101130101026780000011
:100BD800130101FA232E1104232C810413040106A6
:100BE800B707C0009387470083A707002326F4FEB2
:100BF800B707C00083A707002324F4FE232204FEBE
:100C080093078004232CF4FC93079004232EF4FC10
:100C1800232004FE930700022326F4FC9307A00078
:100C28002328F4FC232A04FC930710032320F4FC54
:100C38009307A0002322F4FC232404FC9307200339
:100C4800232AF4FA9307A000232CF4FA232E04FA9B
:100C5800930730032324F4FA9307A0002326F4FA19
:100C6800232804FAEFF08FE4032784FE930770002B
:100C78006308F70A032784FE9307700063C8E70A2E
:100C8800032784FE930760006306F708032784FEA2
:100C98009307600063CCE708032784FE93074000AE
:100CA800630AF700032784FE93075000630EF704D6
:100CB8006F00C00713050000EFF01FC5930784FD00
:100CC80013850700EFF0CFC99307C4FC138507000D
:100CD800EFF00FC9930704FC13850700EFF04FC826
:100CE800930744FB13850700EFF08FC7930784FA37
:100CF80013850700EFF0CFC6930784FA1385070022
:100D0800EFF00FC66F00C00213052000EFF0DFBF41
:100D18006F00000013054000EFF01FBF6F000000D8
:100D280013056000EFF05FBE6F0000006F00000069
:100D380093070000138507008320C105032481055C
:080D48001301010667800000A1
:04000003000000A851
:00000001FF
