:1000000013000000130000001300000013000000A4
:10001000130000006F0040009300000013810000F7
:10002000938100001382000093820000138300007C
:100030009383000013840000938400001385000064
:10004000938500001386000093860000138700004C
:100050009387000013880000938800001389000034
:1000600093890000138A0000938A0000138B00001C
:10007000938B0000138C0000938C0000138D000004
:10008000938D0000138E0000938E0000138F0000EC
:10009000938F0000B702C0009382C20003A1020048
:0800A000EF0080007300100066
:1000A800130101FE232E1100232C8100232A910025
:1000B80013040102B707C00083A707002326F4FE34
:1000C8000327C4FE93074000631AF706B7074000EA
:1000D80083A707002324F4FEB707400083A747003F
:1000E8002322F4FEB7174000938407F0832544FECB
:1000F800032584FEEF0080069307050023A0F40083
:10010800B7174000938447F0832544FE032584FEF7
:10011800EF00D0029307050023A0F400B7174000B2
:10012800938487F0832584FE032544FEEF0040482E
:100138009307050023A0F4006F0080006F00000003
:1001480093070000138507008320C1010324810160
:1001580083244101130101026780000037078000F2
:10016800130101FF1307F7FFB377A70023248100CA
:1001780023229100135475019354F50113D5750189
:100188003377B7001374F40F1375F50F2326110096
:100198002320210193D5F5019397370013173700D2
:1001A800B306A4406396B4186358D00A63100504D4
:1001B800630007029306F4FF63980600B387E7001D
:1001C800130410006F0000061306F00F6318C40232
:1001D80013F77700630A073413F7F7009306400014
:1001E8006304D734938747006F0000341306F00F79
:1001F800E300C4FE370600043367C7009305B00167
:100208001306100063CED50013060002B355D700BD
:10021800B306D6403317D7003337E00033E6E5009E
:10022800B387C7003707000433F7E700E30207FA8C
:10023800130414001307F00F6306E42E3707007E3B
:1002480093F617001307F7FF93D71700B3F7E700E4
:10025800B3E7D7006FF0DFF763860606B30685407D
:10026800631004026386072A1386F6FFE30806F480
:100278009305F00F6390B602930707006F00002103
:100288001306F00FE30AC5FE37060004B3E7C700FC
:10029800138606009305B0019306100063CEC500CF
:1002A80093060002B386C640B3D5C700B397D700FC
:1002B800B337F000B3E6F500B387E6001304050092
:1002C8006FF05FF69306140013F6E60F6316060444
:1002D8006318040263820724E30C07EEB387E70080
:1002E8003707000433F7E700E30407EE370700FC9D
:1002F8001307F7FFB3F7E700130410006FF05FED83
:10030800E38C07F66304071893040000B70700029C
:100318001304F00F6F0040211306F00F6382C6200C
:100328003387E70093571700138406006FF05FEADE
:10033800635ED00663120506E30C07E89306F4FF34
:1003480063980600B387E740130410006F0040036A
:100358001306F00FE30EC4E69305B0011306100070
:1003680063CED50013060002B355D700B306D640B6
:100378003317D7003337E00033E6E500B387C740CB
:100388003709000433F72701E30407E41309F9FFE9
:1003980033F927016F0080111306F00FE30AC4E256
:1003A800370600043367C7006FF01FFB6380060839
:1003B800B3068540631804026382071E1386F6FF9E
:1003C80063180600B307F740938405006FF0DFF762
:1003D8001308F00F63920603930707001304F00F46
:1003E8006F00C0061306F00FE308C5FE37060004C9
:1003F800B3E7C700138606001308B0019306100080
:10040800634EC80093060002B386C64033D8C700BF
:10041800B397D700B337F000B366F800B307D740F7
:1004280013040500938405006FF09FF593061400EC
:1004380093F6E60F6390060663120404639C0700B4
:10044800930400006302070E9307070093840500D6
:100458006FF01FD8E30E07D6B386E74037060004CF
:1004680033F6C600B307F740E31206FE9307000011
:1004780063820608938706006FF09FD5E39407E828
:10048800E30407E893070700938405001304F00FBB
:100498006FF01FD43389E740B7060004B376D9005C
:1004A800638406043309F7409384050013050900A3
:1004B800EF00D00D1305B5FF3319A900634085047B
:1004C8003305854013051500130700023307A740BD
:1004D800B357A9003319E90033392001B3E72701DD
:1004E800130400006FF0DFCEE31209FC930700004D
:1004F80013040000930400006F000003B70700FC1A
:100508009387F7FF3304A440B377F9006FF05FCC0B
:10051800930707006FF05FE1930707006FF05FCB69
:100528001304F00F930700003707000433F7E700C0
:10053800630E0700130414001307F00F6306E406A4
:10054800370700FC1307F7FFB3F7E7001307F00FAF
:1005580093D737006318E40063860700B7074000A5
:1005680093040000131474013707807F9397970052
:100578003374E40093D797003364F4001395F401BF
:100588008320C1003365A400032481008324410033
:100598000329010013010101678000009307070088
:1005A800138406006FF09FEA930700006FF01FFAAC
:1005B800130101FD2322910293547501232E310169
:1005C800232A510123286101931A95002326110239
:1005D8002324810223202103232C41012326710196
:1005E8002324810193F4F40F138B050093DA9A0006
:1005F8009359F501638404089307F00F6380F40AA4
:10060800939A3A00B7070004B3EAFA00938414F8FF
:10061800930B000093577B0113149B0093F7F70F7C
:1006280013549400135BFB01638A07081307F00F48
:100638006386E70A13143400370700043364E400C0
:10064800938717F813070000338AF44093972B0019
:10065800B3E7E7009387F7FF9306E00033C9690122
:1006680063EEF608B7064000939727009386860046
:10067800B387D70083A7070067800700638A0A0249
:1006880013850A00EF0080709307B5FF9304A0F864
:10069800B39AFA00B384A4406FF09FF79304F00F65
:1006A800930B2000E3880AF6930B30006FF09FF657
:1006B80093040000930B10006FF0DFF5630A040247
:1006C80013050400EF00806C9307B5FF3314F400A2
:1006D8009307A0F8B387A7406FF0DFF69307F00FF2
:1006E80013072000E30204F6130730006FF0DFF56C
:1006F80093070000130710006FF01FF5131C540038
:1007080063FA8A16130AFAFF13040000135B0C013C
:10071800B709010093050B009389F9FF13850A00B7
:10072800EF00005CB3793C0193050500930B0500CD
:1007380013850900EF0000589304050093050B008A
:1007480013850A00EF00405E935704011315050155
:10075800B3E7A70013840B0063FE9700B3878701F4
:100768001384FBFF63E8870163F697001384EBFFAC
:10077800B3878701B384974093050B001385040062
:10078800EF00005693050500930A0500138509003C
:10079800EF0040529309050093050B0013850400F0
:1007A800EF0080589317050113870A0063FE37018D
:1007B800B38787011387FAFF63E8870163F6370178
:1007C8001387EAFFB387870113140401B3873741FE
:1007D8003364E400B337F0003364F4001307FA0716
:1007E8006354E00E93777400638A07009377F400EC
:1007F800930640006384D70013044400B707000839
:10080800B377F400638A0700B70700F89387F7FF08
:100818003374F40013070A089307E00F63C4E7086A
:10082800935734008320C1020324810213177701F0
:10083800B706807F939797003377D70093D79700B1
:100848001315F9013367F7008324410203290102D4
:100858008329C101032A8101832A4101032B010154
:10086800832BC100032C81003365A700130101030A
:10087800678000001394FA0193DA1A006FF01FE9F9
:100888001389090013840A0013870B0093073000AB
:100898006308F70893071000630CF7089307200014
:1008A800E31EF7F2930700001307F00F6FF09FF7AE
:1008B80013090B006FF09FFD370440001309000077
:1008C800130730006FF09FFC93071000B387E740D1
:1008D8001307B001634EF7049304EA09B357F40011
:1008E8003314940033348000B3E7870013F777009C
:1008F800630A070013F7F700930640006304D70064
:10090800938747003707000433F7E70093D737008A
:10091800E30A07F093070000130710006FF09FF039
:10092800B70740001307F00F130900006FF09FEF9F
:1009380093070000130700006FF0DFEE130101FEBC
:100948002328210113597501232A910023263101F7
:100958002322510193149500232E1100232C81008A
:10096800232441011379F90F938A050093D4940045
:100978009359F5016302091C9307F00F630EF91CE4
:1009880093943400B7070004B3E4F400130919F88A
:10099800130A000093D77A0113949A0093F7F70F7C
:1009A8001354940093DAFA016388071C1307F00FB5
:1009B8006384E71E13143400370700043364E4002B
:1009C800938717F8930600003309F90093172A0054
:1009D800B3E7D7001307A00033C8590193081900DB
:1009E8006344F722130720006348F71C9387F7FF37
:1009F800130710006374F71EB70E01001383FEFF80
:100A080093DF0401135F0401B3F4640033746400DA
:100A18001385040093050400EF00C029130705009F
:100A280093050F0013850400EF00C0289307050005
:100A38009305040013850F00EF00C027130E05006F
:100A480093050F0013850F00EF00C026135407010C
:100A5800B387C7013304F400930605006374C40127
:100A6800B306D501B377640033776700939707011E
:100A7800B387E70013976700135404013337E00086
:100A880093D7A7013304D400B367F70013146400A5
:100A98003364F400B7070008B377F400638E0718CF
:100AA800935714001374140033E487001387F8076E
:100AB8006358E01893777400638A07009377F4000B
:100AC800930640006384D70013044400B707000866
:100AD800B377F400638A0700B70700F89387F7FF36
:100AE8003374F400138708089307E00F63CEE71AFE
:100AF800935734008320C101032481011317770120
:100B0800B706807F939797003377D70093D79700DE
:100B18003367F7001315F801832441010329010104
:100B28008329C100032A8100832A41003365A70075
:100B38001301010267800000638A04021385040020
:100B4800EF00C0249307B5FF1309A0F8B394F4008D
:100B58003309A9406FF0DFE31309F00F130A2000EF
:100B6800E38A04E2130A30006FF0DFE213090000A1
:100B7800130A10006FF01FE2630A04021305040051
:100B8800EF00C0209307B5FF3314F4009307A0F8D3
:100B9800B387A7406FF01FE39307F00F9306200079
:100BA800E30404E2930630006FF01FE293070000AD
:100BB800930610006FF05FE113071000B317F700FA
:100BC80013F70753631C070413F707246316070C6E
:100BD80093F78708E38207E213880A0013062000C8
:100BE800930700001307F00FE386C6F09307300061
:100BF8006384F60A93071000E39AF6EA9307000065
:100C0800130700006FF01FEF1307F000638EE70073
:100C18001307B000E382E7FC13880900138404007B
:100C280093060A006FF09FFB37044000130800008A
:100C3800930630006FF09FFB930809006FF01FE7E1
:100C480093071000B387E7401307B001E348F7FAAA
:100C58009388E809B357F40033141401333480003F
:100C6800B3E7870013F77700630A070013F7F70065
:100C7800930640006304D7009387470037070004B2
:100C880033F7E70093D73700E30607E6930700003A
:100C9800130710006FF01FE6B70740001307F00FA7
:100CA800130800006FF01FE5930700001307F00F0B
:100CB8006FF05FE4130605001305000093F61500B6
:100CC800638406003305C50093D515001316160076
:100CD800E39605FE678000006340050663C60506C7
:100CE80013860500930505001305F0FF630C060243
:100CF80093061000637AB6006358C00013161600F6
:100D080093961600E36AB6FE1305000063E6C50075
:100D1800B385C5403365D50093D616001356160023
:100D2800E39606FE6780000093820000EFF05FFB09
:100D380013850500678002003305A0406348B000B2
:100D4800B305B0406FF0DFF9B305B04093820000FF
:100D5800EFF01FF93305A04067800200938200007E
:100D680063CA0500634C0500EFF09FF71385050083
:100D780067800200B305B040E35805FE3305A04084
:100D8800EFF01FF63305B04067800200B707010097
:100D9800637AF5029337051093C7170093973700C6
:100DA8003707400093060002B386F6403355F50036
:100DB80093074704B387A70003C507003385A640F8
:100DC800678000003707000193070001E36AE5FC2C
:080DD800930780016FF0DFFCBE
:020000040040BA
:100000000000C03FCDCC0C40AC0800003809000017
:10001000B80800003809000028090000380900006D
:10002000B8080000AC080000AC0800002809000077
:10003000B808000088080000880800008808000050
:10004000C0080000000102020303030304040404C7
:100050000404040405050505050505050505050554
:100060000505050506060606060606060606060634
:100070000606060606060606060606060606060620
:100080000606060607070707070707070707070704
:1000900007070707070707070707070707070707F0
:1000A00007070707070707070707070707070707E0
:1000B00007070707070707070707070707070707D0
:1000C00007070707080808080808080808080808B4
:1000D00008080808080808080808080808080808A0
:1000E0000808080808080808080808080808080890
:1000F0000808080808080808080808080808080880
:10010000080808080808080808080808080808086F
:10011000080808080808080808080808080808085F
:10012000080808080808080808080808080808084F
:10013000080808080808080808080808080808083F
:04014000080808089B
:04000003000000A851
:00000001FF
