:1000000013000000130000001300000013000000A4
:10001000130000006F0040009300000013810000F7
:10002000938100001382000093820000138300007C
:100030009383000013840000938400001385000064
:10004000938500001386000093860000138700004C
:100050009387000013880000938800001389000034
:1000600093890000138A0000938A0000138B00001C
:10007000938B0000138C0000938C0000138D000004
:10008000938D0000138E0000938E0000138F0000EC
:10009000938F0000B702C0009382C20003A1020048
:0800A000EF0080007300100066
:1000A800130101FE232E1100232C8100232A910025
:1000B80013040102B707C00083A707002326F4FE34
:1000C8000327C4FE930740006318F706B7074000EC
:1000D80083A707002324F4FEB707400083A747003F
:1000E8002322F4FEB7144000832544FE032584FE32
:1000F800EF0080069307050023A0F400B71740001F
:1001080093844700832544FE032584FEEF00D00333
:100118009307050023A0F400B717400093848700D5
:10012800832584FE032544FEEF00C048930705009D
:1001380023A0F4006F0080006F0000009307000008
:10014800138507008320C101032481018324410111
:10015800130101026780000037078000130101FFC7
:100168001307F7FFB377A700232481002322910008
:10017800135475019354F50113D575013377B700FE
:100188001374F40F1375F50F232611002320210192
:1001980093D5F5019397370013173700B306A4409A
:1001A800639AB4186350D00A6316050263000718EF
:1001B8001386F6FF63180600B387E70013041000E0
:1001C8006F0000059305F00F6390B6021304F00F5B
:1001D8006F0080111306F00F6308C410370600047F
:1001E8003367C700138606009305B0019306100015
:1001F80063CEC50093060002B386C640B355C70058
:100208003317D7003337E000B3E6E500B387D700EC
:100218003707000433F7E7006308070C13041400DA
:100228001307F00F6302E4303707007E93F61700D8
:100238001307F7FF93D71700B3F7E700B3E7D70023
:100248006F00800A63860606B306854063100402C1
:100258006382072C1386F6FFE30006F69305F00F7A
:100268006390B602930707006FF05FF61306F00F6E
:10027800E30AC5FE37060004B3E7C7001386060085
:100288009305B0019306100063CEC50093060002E3
:10029800B386C640B3D5C700B397D700B337F000CD
:1002A800B3E6F500B387E600130405006FF05FF6C8
:1002B8009306140013F6E60F63120606631404048B
:1002C800638E072463020702B387E7003707000439
:1002D80033F7E700630A0700370700FC1307F7FF47
:1002E800B3F7E7001304100013F77700630007243F
:1002F80013F7F70093064000630AD7229387470055
:100308006F00C022E38007F6E30207EC93040000C5
:10031800B70700021304F00F6F0040211306F00F17
:100328006382C620B387E70093D7170013840600BB
:100338006FF09FFB6350D00863120506E30807FEC1
:100348001386F6FF63180600B387E740130410000E
:100358006F0040039305F00FE38AB6E69305B001FA
:100368009306100063CEC50093060002B386C6400C
:10037800B355C7003317D7003337E000B3E6E500BD
:10038800B387D7403709000433F72701E30E07F492
:100398001309F9FF33F927016F0080111306F00FD5
:1003A800E304C4F4370600043367C7001386060065
:1003B8006FF0DFFA63800608B3068540631804020D
:1003C8006380071E1386F6FF63180600B307F7401D
:1003D800938405006FF09FF71308F00F63920603EC
:1003E800930707001304F00F6F00C0061306F00F01
:1003F800E308C5FE37060004B3E7C7001386060006
:100408001308B00193061000634EC800930600025B
:10041800B386C64033D8C700B397D700B337F000C8
:10042800B366F800B307D7401304050093840500AA
:100438006FF05FF59306140093F6E60F639E0604CB
:1004480063120404639C0700930400006300070E12
:1004580093070700938405006FF01FE9E30607E898
:10046800B386E7403706000433F6C600B307F74003
:10047800E31206FE930700006380060893870600D0
:100488006FF09FE6E39207E8E30207E893070700A7
:10049800938405006FF09FD33389E740B7060004C3
:1004A800B376D900638406043309F74093840500C2
:1004B80013050900EF00D0091305B5FF3319A9008A
:1004C80063408504330585401305150013040002B5
:1004D800B357A9003305A4403319A90033392001C3
:1004E800B3E72701130400006FF01FE0E31209FCD3
:1004F8009307000013040000930400006F0000033A
:10050800B70700FC9387F7FF3304A440B377F900DB
:100518006FF09FDD930707006FF05FE19307070017
:100528006FF09FDC1304F00F9307000037070004F7
:1005380033F7E700630E0700130414001307F00FE6
:100548006306E406370700FC1307F7FFB3F7E70075
:100558001307F00F93D737006318E400638607008A
:10056800B7074000930400003705807F1314740117
:10057800939797003374A40093D797008320C10002
:10058800B367F400032481001395F40103290100E3
:100598008324410033E5A7001301010167800000AF
:1005A80093070700138406006FF0DFEA9307000043
:1005B8006FF01FFA130101FD232291029354750174
:1005C800232E3101232A510123286101931A950012
:1005D800232611022324810223202103232C4101F5
:1005E80023267101232481012322910193F4F40F1E
:1005F800138B050093DA9A009359F5016384040874
:100608009307F00F6380F40A939A3A00B70700043F
:10061800B3EAFA00938414F8930B000093577B0114
:1006280013149B0093F7F70F13549400135BFB010B
:10063800638A07081307F00F6386E70A1314340068
:10064800370700043364E400938717F813070000A2
:1006580093962B00B3E6E600338AF4409386F6FFC0
:100668009307E00033C9690163EED708B707400074
:100678009387870093962600B386F60083A7060023
:1006880067800700638A0A0213850A00EF00406C3E
:100698009307B5FF9304A0F8B39AFA00B384A44073
:1006A8006FF09FF79304F00F930B2000E3880AF68E
:1006B800930B30006FF09FF693040000930B10002B
:1006C8006FF0DFF5630A040213050400EF004068C9
:1006D8009307B5FF3314F4009307A0F8B387A74036
:1006E8006FF0DFF69307F00F13072000E30204F61C
:1006F800130730006FF0DFF59307000013071000B1
:100708006FF01FF5931C540063FC8A16130AFAFF56
:100718009304000013DB0C013704010093050B0060
:100728001304F4FF13850A00EF00C05733F48C005C
:1007380093050500130C050013050400EF00C053D2
:10074800930B050093050B0013850A00EF00005A70
:100758001315050193D70401B3E7A70093090C000B
:1007680063FE7701B38797019309FCFF63E897015C
:1007780063F677019309ECFFB3879701B38B774151
:1007880093050B0013850B00EF00C051930505007E
:10079800930A050013050400EF00004E130405003A
:1007A80093050B0013850B00EF00405493170501C8
:1007B80013870A0063FE8700B38797011387FAFF40
:1007C80063E8970163F687001387EAFFB387970109
:1007D800B387874093990901B3E9E900B337F0007B
:1007E80033E4F9001307FA076356E00E93777400B1
:1007F800638A07009377F400930640006384D70068
:1008080013044400B7070008B377F400638A0700AD
:10081800B70700F89387F7FF3374F40013070A0843
:100828009307E00F1354340063C4E7089317770164
:10083800131494003707807FB3F7E700135494002C
:1008480033E487001315F9018320C1023365A4003E
:100858000324810283244102032901028329C1015F
:10086800032A8101832A4101032B0101832BC10043
:10087800032C8100832C41001301010367800000D1
:100888009394FA0193DA1A006FF0DFE813890900EC
:1008980013840A0013870B00930730006308F708D6
:1008A80093071000630CF70893072000E31CF7F286
:1008B800130400001307F00F6FF05FF713090B0024
:1008C8006FF09FFD37044000130900001307300044
:1008D8006FF09FFC93071000B387E7401307B00140
:1008E800634EF7049304EA09B357F40033149400F1
:1008F8003334800033E4870093777400638A0700F9
:100908009377F400130740006384E700130444005E
:10091800B7070004B377F400135434006382070266
:1009280013040000130710006FF05FF03704400055
:100938001307F00F130900006FF05FEF13040000B6
:10094800130700006FF09FEE130101FE2328210119
:1009580013597501232A91002326310123244101CB
:1009680093149500232E1100232C8100232251017A
:100978001379F90F138A050093D494009359F5015C
:10098800630609089307F00F6302F90A9394340089
:10099800B7070004B3E4F400130919F8930A000038
:1009A80013557A0113149A001375F50F1354940014
:1009B800135AFA01630C05089307F00F6308F50A48
:1009C80013143400B70700043364F400130515F852
:1009D8009307000013972A003367F7003309A9002B
:1009E8001307F7FF9306E00033C84901930819007D
:1009F80063EEE608B70640001317270093864604FF
:100A08003307D7000327070067000700638A04023B
:100A180013850400EF00C0339307B5FF1309A0F84E
:100A2800B394F4003309A9406FF05FF71309F00F8E
:100A3800930A2000E38604F6930A30006FF05FF60D
:100A480013090000930A10006FF09FF5630A04026F
:100A580013050400EF00C02F9307B5FF3314F4000B
:100A68009307A0F83385A7406FF09FF61305F00FA2
:100A780093072000E30004F6930730006FF09FF51A
:100A880013050000930710006FF0DFF4370F010023
:100A9800930EFFFF93DF040193570401B3F4D401CD
:100AA8003374D4011385040093050400EF00C01CBF
:100AB800130305009385070013850400EF00C01B8E
:100AC800130E05009305040013850F00EF00C01AEC
:100AD800130705009385070013850F00EF00C01961
:100AE80093570301330EEE00B387C70163F4E700A1
:100AF8003305E50133F7D701131707013373D30122
:100B080033076700131467003334800093D7070155
:100B18001357A7013367E4003384A7001314640054
:100B28003364E400B7070008B377F400638E07085E
:100B3800935714001374140033E487001387F807DD
:100B48006358E00893777400638A07009377F4008A
:100B5800930640006384D70013044400B7070008D5
:100B6800B377F400638A0700B70700F89387F7FFA5
:100B78003374F400138708089307E00F1354340004
:100B880063DAE70A130400001307F00F6F00800A06
:100B9800138809001384040093870A0013072000B0
:100BA800E382E7FE130730006380E70813071000AD
:100BB800E396E7F813040000130700006F008007AE
:100BC80013080A006FF09FFD930809006FF01FF7E4
:100BD80093071000B387E7401307B001E34CF7FC15
:100BE8009388E809B357F4003314140133348000B0
:100BF80033E4870093777400638A07009377F400DF
:100C0800130740006384E70013044400B707000497
:100C1800B377F40013543400E38007FA1304000098
:100C2800130710006F000001370440001307F00F8E
:100C38001308000093177701131494003707807F77
:100C4800B3F7E7001354940033E487001315F80151
:100C58008320C1013365A400032481018324410159
:100C6800032901018329C100032A8100832A410045
:100C78001301010267800000130605001305000038
:100C880093F61500638406003305C50093D5150057
:100C980013161600E39605FE6780000063400506FC
:100CA80063C6050613860500930505001305F0FFC6
:100CB800630C060293061000637AB6006358C000FE
:100CC8001316160093961600E36AB6FE1305000085
:100CD80063E6C500B385C5403365D50093D61600D5
:100CE80013561600E39606FE678000009382000004
:100CF800EFF05FFB13850500678002003305A04015
:100D08006348B000B305B0406FF0DFF9B305B040F9
:100D180093820000EFF01FF93305A04067800200BE
:100D28009382000063CA0500634C0500EFF09FF74B
:100D38001385050067800200B305B040E35805FE3F
:100D48003305A040EFF01FF63305B040678002007E
:100D5800B7070100637AF5029307F00FB3B7A7004E
:100D6800939737003707400093060002B386F64092
:100D78003355F500930707083385A7000345050099
:100D88003385A640678000003707000193070001FC
:0C0D9800E36AE5FC930780016FF0DFFCCC
:020000040040BA
:100000000000C03FCDCC0C40B808000044090000FF
:10001000C40800004409000034090000440900003D
:10002000C4080000B8080000B80800003409000047
:10003000C408000094080000940800009408000020
:10004000CC080000A40B0000A40B0000C80B0000AB
:100050009C0B00009C0B0000300C0000C80B000043
:100060009C0B0000300C00009C0B0000C80B000033
:10007000980B0000980B0000980B0000300C00005B
:10008000000102020303030304040404040404043F
:100090000505050505050505050505050505050510
:1000A00006060606060606060606060606060606F0
:1000B00006060606060606060606060606060606E0
:1000C00007070707070707070707070707070707C0
:1000D00007070707070707070707070707070707B0
:1000E00007070707070707070707070707070707A0
:1000F0000707070707070707070707070707070790
:10010000080808080808080808080808080808086F
:10011000080808080808080808080808080808085F
:10012000080808080808080808080808080808084F
:10013000080808080808080808080808080808083F
:10014000080808080808080808080808080808082F
:10015000080808080808080808080808080808081F
:10016000080808080808080808080808080808080F
:1001700008080808080808080808080808080808FF
:04000003000000A851
:00000001FF
