:1000000013000000130000001300000013000000A4
:10001000130000006F0040009300000013810000F7
:10002000938100001382000093820000138300007C
:100030009383000013840000938400001385000064
:10004000938500001386000093860000138700004C
:100050009387000013880000938800001389000034
:1000600093890000138A0000938A0000138B00001C
:10007000938B0000138C0000938C0000138D000004
:10008000938D0000138E0000938E0000138F0000EC
:10009000938F0000B702C0009382C20003A1020048
:0800A000EF0050647300100032
:1000A800130101FD232681021304010393070500B0
:1000B800232CB4FC232AC4FCA30FF4FC032784FDDF
:1000C8009307070093972700B387E7009397670084
:1000D8002326F4FE832744FD939727002324F4FE68
:1000E800032784FE8327C4FE3307F700B7074003BE
:1000F800B307F7002322F4FE032784FE8327C4FEF8
:100108003307F700B707400393870714B307F700CF
:100118002320F4FE8347F4FD3707400013070759EF
:1001280093972700B307F70083A7070013870700F3
:10013800832744FE23A0E7008347F4FD37074000E8
:100148001307477193972700B307F70083A70700A2
:1001580013870700832704FE23A0E700130000008D
:100168000324C1021301010367800000130101FD8C
:10017800232611022324810213040103232EA4FC45
:10018800232604FE232404FE232204FEB707C0000E
:100198009387072283A707002322F4FEB707C0002E
:1001A8009387472383A707002324F4FE6F00800B5F
:1001B8008327C4FE0327C4FDB307F70003C707005E
:1001C8009307A000631AF702232204FE832784FE04
:1001D800938727002324F4FE032784FE93078007D0
:1001E8006314F700232404FE8327C4FE93871700B3
:1001F8002326F4FE6F0000078327C4FE0327C4FDEF
:10020800B307F70083C70700032784FE832644FE4D
:10021800138606009305070013850700EFF05FE8D3
:10022800832744FE938717002322F4FE032744FE06
:10023800930700056312F702232204FE832784FE36
:10024800938727002324F4FE032784FE930780075F
:100258006314F700232404FE8327C4FE9387170042
:100268002326F4FE8327C4FE0327C4FDB307F70043
:1002780083C70700E39E07F2B707C00093870722EA
:10028800032744FE23A0E700B707C000938747234E
:10029800032784FE23A0E700130000008320C10287
:1002A800032481021301010367800000130101FD8B
:1002B8002326810213040103232EA4FC232CB4FC5F
:1002C800232AC4FC032784FD93070700939727007C
:1002D800B387E700939767002326F4FE832744FD3E
:1002E800939727002324F4FE032784FE8327C4FE64
:1002F8003307F700B7074003B307F7002322F4FEDC
:10030800032784FE8327C4FE3307F700B70740039B
:1003180093870714B307F7002320F4FEB7174000AC
:10032800138787898327C4FD93972700B307F700AE
:1003380083A7070013870700832744FE23A0E7004D
:10034800B71740001387078B8327C4FD93972700AF
:10035800B307F70083A7070013870700832704FE66
:1003680023A0E700130000000324C10213010103C6
:1003780067800000130101FE232E8100130401028F
:100388002326A4FE2324B4FEB707C00093870722C0
:10039800032784FE23A0E700B707C00093874723FD
:1003A8000327C4FE23A0E700130000000324C101B3
:1003B8001301010267800000130101FE232E810052
:1003C80013040102232604FEB70740032324F4FE86
:1003D800232604FE6F0040028327C4FE939727005C
:1003E800032784FEB307F70023A007008327C4FE72
:1003F800938717002326F4FE0327C4FEB7270000BF
:100408009387F757E3DAE7FC1300000013000000B6
:100418000324C1011301010267800000130101FEDA
:10042800232E810013040102232604FE6F0000011D
:100438008327C4FE938717002326F4FE0327C4FEF0
:10044800B74701009387F787E3D4E7FE130000005E
:10045800130000000324C10113010102678000009A
:10046800130101FD2326810213040103232EA4FC9A
:10047800232CB4FC232AC4FC2328D4FC832784FD22
:100488009387171493971700032744FDB307F700C2
:100498002322F4FE0327C4FD930707009397270040
:1004A800B387E70093974700938717002320F4FE4C
:1004B800232604FE6F004003032744FE8327C4FE5F
:1004C8003307F740832704FDB307F7001397270086
:1004D800B7074003B307F70023A007008327C4FE2C
:1004E800938707052326F4FE0327C4FE93070064B9
:1004F800E3D4E7FC232404FE6F008003032744FEB3
:10050800832784FE3307F740832704FDB307F700EA
:1005180013972700B7074003B307F7001307F0FF47
:1005280023A0E700832784FE938707052324F4FE8E
:10053800032784FE832704FEE342F7FC1300000030
:10054800130000000324C1021301010367800000A7
:10055800130101FD2326810213040103232EA4FCA9
:10056800232CB4FC8327C4FD83A707002326F4FEAD
:10057800832784FD03A707008327C4FD23A0E70082
:10058800832784FD0327C4FE23A0E700130000008F
:100598000324C1021301010367800000130101FD58
:1005A800232611022324810213040103232EA4FC11
:1005B800232CB4FC232AC4FC2328D4FC232604FEC1
:1005C8006F00C00F232404FE6F00000D832784FEF4
:1005D800939727000327C4FDB307F70003A7070075
:1005E800832784FE93871700939727008326C4FDEB
:1005F800B387F60083A7070063DAE708832784FE3A
:10060800939727000327C4FDB306F700832784FECA
:1006180093871700939727000327C4FDB307F700B4
:100628009385070013850600EFF09FF2832784FE69
:10063800939727000327C4FDB307F70083A7070094
:10064800832604FD032644FD832584FE13850700C5
:10065800EFF01FE1832784FE938717009397270005
:100668000327C4FDB307F70003A70700832784FE09
:1006780093871700832604FD032644FD938507000E
:1006880013050700EFF0DFDDEFF05FD9832784FE65
:10069800938717002324F4FE032784FD8327C4FED1
:1006A800B307F7409387F7FF032784FEE340F7F289
:1006B8008327C4FE938717002326F4FE832784FD2F
:1006C8009387F7FF0327C4FEE34EF7EE13000000FD
:1006D800130000008320C1020324810213010103D7
:1006E80067800000130101FD2326110223248102E3
:1006F80013040103232EA4FC232CB4FC232AC4FCDA
:100708002328D4FC930710002326F4FE6F00001260
:100718008327C4FE939727000327C4FDB307F70078
:1007280083A707002322F4FE8327C4FE9387F7FFDD
:100738002324F4FE6F004007832784FE9397270045
:100748000327C4FD3307F700832784FE9387170028
:10075800939727008326C4FDB387F6000327070075
:1007680023A0E700832784FE938717009397270029
:100778000327C4FDB307F70003A70700832784FEF8
:1007880093871700832604FD032644FD93850700FD
:1007980013050700EFF0DFCCEFF05FC8832784FE76
:1007A8009387F7FF2324F4FE832784FE63C00702A0
:1007B800832784FE939727000327C4FDB307F70018
:1007C80083A70700032744FEE348F7F6832784FE40
:1007D80093871700939727000327C4FDB307F700F3
:1007E800032744FE23A0E700832784FE938717008E
:1007F800939727000327C4FDB307F70003A7070053
:10080800832784FE93871700832604FD032644FD6F
:100818009385070013050700EFF09FC4EFF01FC092
:100828008327C4FE938717002326F4FE0327C4FEFC
:10083800832784FDE34EF7EC13000000130000004B
:100848008320C10203248102130101036780000091
:10085800130101FF23261100232481001304010141
:100868009305100013051000EFF0DFB0B707400044
:1008780013850700EFF09F8F930510001305A00064
:10088800EFF05FAFB70740001385C701EFF01F8E89
:100898009305400113054001EFF0DFADB7074000B5
:1008A8001385C703EFF09F8C930540011305800261
:1008B800EFF05FACB70740001385C705EFF01F8B5B
:1008C8009305400113052003EFF0DFAAB7074000A6
:1008D80013858707EFF09F89930540011305C0032F
:1008E800EFF05FA9B707400013858708EFF01F886E
:1008F800130000008320C1000324810013010101BB
:1009080067800000130101F92326110623248106BC
:1009180013040107930710002326F4FE232A04FC7E
:100928009307F03F2324F4FE232204FE93071000CC
:100938002320F4FE93070020232EF4FC232C04FC30
:1009480093070004232AF4F893079007232CF4F85C
:1009580093074002232EF4F8930700032320F4FAA8
:10096800930790012322F4FA930720012324F4FA31
:10097800930720002326F4FA930780072328F4FA24
:10098800232A04FA93078001232CF4FA93078000A2
:10099800232EF4FA930730002320F4FC9307600415
:1009A8002322F4FC930710022324F4FC930760002D
:1009B8002326F4FC9307E0002328F4FC9307F007B0
:1009C800232AF4FC9305A00013054001EFF09F9A39
:1009D800B70740001385070AEFF04FF99305F000B9
:1009E8001305E001EFF01F99B70740001385C70B07
:1009F800EFF0CFF79305400113058002EFF09F97C2
:100A0800B70740001385070FEFF04FF69305400135
:100A18001305D002EFF01F96B70740001385871023
:100A2800EFF0CFF49305400113052003EFF09F94F6
:100A3800B707400013850712EFF04FF39305400105
:100A480013057003EFF01F93B70740001385C71312
:100A5800EFF0CFF1930540011305C003EFF09F912C
:100A6800B70740001385C715EFF04FF09305400115
:100A780013051004EFF01F90B70740001385871780
:100A8800EFF0CFEEB727C0039387470283A707008D
:100A9800639C0704930710002326F4FE9307F03F96
:100AA8002324F4FE930710002320F4FE930700206C
:100AB800232EF4FCEFF09F96B727C0039387870196
:100AC800032744FE23A0E700032744FE9307F03FD3
:100AD8006316F700232204FE6FF0DFFA9307F03F56
:100AE8002322F4FE6FF01FFAB727C003938747024B
:100AF80003A7070093071000631CF7049307F03F50
:100B08002324F4FE232204FE930710002320F4FE7E
:100B180093070020232EF4FCEFF05F90B727C00363
:100B2800938787010327C4FE23A0E7008327C4FE19
:100B3800938717002326F4FE0327C4FE9307F03F8C
:100B4800E312F7F4930710002326F4FE6FF09FF3E7
:100B5800B727C0039387470203A70700930720001E
:100B6800631CF704930710002326F4FE9307F03F55
:100B78002324F4FE232204FE93070020232EF4FCF2
:100B8800EFF0DF89B727C00393878701032704FEA7
:100B980023A0E700832704FE939717002320F4FE81
:100BA800032704FE93070020E3DEE7EC9307100019
:100BB8002320F4FE6FF01FEDB727C0039387470289
:100BC80003A7070093073000631AF7049307100080
:100BD8002326F4FE232204FE930710002320F4FEAC
:100BE80093070020232EF4FCEFF05F83B727C003A0
:100BF80093878701032784FE23A0E700832784FEC9
:100C08009387F7FF2324F4FE832784FEE39C07E6FB
:100C18009307F03F2324F4FE6FF0DFE6B727C00305
:100C28009387470203A7070093074000631EF70452
:100C3800930710002326F4FE9307F03F2324F4FEC5
:100C4800232204FE930710002320F4FEEFF00FFD8B
:100C5800B727C003938787010327C4FD23A0E700B4
:100C68008327C4FD13D7F701B307F70093D71740BD
:100C7800232EF4FC8327C4FDE39607E093070020A6
:100C8800232EF4FC6FF01FE0B727C00393874702B9
:100C980003A7070093075000E316F7DE9307100039
:100CA8002326F4FE9307F03F2324F4FE232204FEB8
:100CB800930710002320F4FE93070020232EF4FC52
:100CC800EFF0CFF5832784FD13871700232CE4FC6E
:100CD8003727C0031307470193972700930604FF9C
:100CE800B387F60083A747FA2320F7003727C00306
:100CF800130707012320F7003727C0031307C7008E
:100D08002320F7003727C003130787002320F700A5
:100D18003727C003130747002320F7003727C003EE
:100D28002320F700032784FD93070001E3DCE7D4C1
:100D3800232C04FC6FF01FD5130101FF232611009B
:100D480023248100130401019305100013051000EA
:100D5800EFF04FE2B707400013850719EFF00FC116
:100D68009305100013055000EFF0CFE0B7074000DF
:100D78001385071AEFF08FBF930540011305A000F4
:100D8800EFF04FDFB70740001385871AEFF00FBE6B
:100D98009305400113054001EFF0CFDDB707400090
:100DA8001385071CEFF08FBC9305400113059001D4
:100DB800EFF04FDCB70740001385471DEFF00FBB7E
:100DC800930540011305E001EFF0CFDAB7074000C3
:100DD8001385471FEFF08FB99305400113053002C3
:100DE800EFF04FD9B70740001385C720EFF00FB8D1
:100DF8009305400113058002EFF0CFD7B7074000F5
:100E08001385C723EFF08FB6930540011305D00271
:100E1800EFF04FD6B707400013854726EFF00FB520
:100E28009305400113052003EFF0CFD4B707400026
:100E380013850728EFF08FB393059001130570030E
:100E4800EFF04FD3B707400013858729EFF00FB2B3
:100E5800930590011305C003EFF0CFD1B707400009
:100E68001385C72AEFF08FB09305400113051004CE
:100E7800EFF04FD0B70740001385072CEFF00FAF06
:100E88009305900113056004EFF0CFCEB70740003B
:100E98001385C72CEFF08FAD930590011305B004AF
:100EA800EFF04FCDB70740001385872DEFF00FAC5B
:100EB8009305900113050005EFF0CFCBB70740006D
:100EC8001385C72EEFF08FAA130000008320C100FE
:100ED800032481001301010167800000130101F55B
:100EE8002326110A2324810A1304010BEFF0CFCC27
:100EF800B707C00083A707002324F4FC832784FCDA
:100F08009387C7FF13077000E362F718139727004A
:100F1800B707400093870757B307F70083A7070071
:100F280067800700B707C0019387071523A007004C
:100F3800EFF0CFCE930510001305E001EFF08FC35B
:100F4800B70740001385C72FEFF04FA2B70740003F
:100F5800138707459307C4F5930607001307800412
:100F6800130607009385060013850700EF00101489
:100F7800930720012322F4FA232404FE6F00C00300
:100F8800832784FE93972700130704FFB307F7000E
:100F980003A7C7F6B7170000938607E113060000FA
:100FA800832584FE13050700EFF08FCB832784FE8B
:100FB800938717002324F4FE032784FE832744FA2B
:100FC800E340F7FCEFF08FC51307C4F5B71700002F
:100FD800938607E113060000832544FA13050700EA
:100FE800EFF0CFDBEFF08FC36F000000EFF05F860C
:100FF800232604FAB727C0039387470283A707006D
:101008002326F4FA0327C4FA93071000631CF70297
:10101800130620019305800213051000EFF00FA9B5
:10102800130620019305200313055000EFF00FA8C5
:10103800130620019305C00313055000EFF00FA716
:101048006FF05FFB0327C4FA93072000631CF702C5
:10105800130620019305200313051000EFF00FA5D8
:10106800130620019305800213055000EFF00FA42A
:10107800130620019305C00313055000EFF00FA3DA
:101088006FF05FF70327C4FA93074000631CF70269
:10109800130620019305C00313051000EFF00FA1FC
:1010A800130620019305800213055000EFF00FA0EE
:1010B800130620019305200313055000EFF00F9F3E
:1010C8006FF05FF30327C4FA930710086308F70467
:1010D8000327C4FA930720086302F7040327C4FA16
:1010E80093074008630CF70213062001930580025A
:1010F80013055000EFF08F9B130620019305200382
:1011080013055000EFF08F9A130620019305C003D2
:1011180013055000EFF08F996FF0DFED0327C4FA45
:10112800930710086318F700EFF00FA9EFF0DFC07E
:101138006F0000000327C4FA930720086318F7001C
:10114800EFF08FA7EFF00FFC6F0000000327C4FA41
:1011580093074008631EF772EFF00FA6B707C002A7
:101168001387C715930710002320F7003707C0021D
:10117800130787152320F7003707C0021307471501
:101188002320F7003707C002130707152320F700AD
:101198003707C0011307C7152320F7003707C00119
:1011A800130787152320F7003707C0011307071512
:1011B8002320F700EFF08FA6930580021305A00502
:1011C800EFF04F9BB707400013854732EFE01FFA57
:1011D800B7074000138787499307C4F593060700AC
:1011E800130780041306070093850600138507007C
:1011F800EF00C06B930720012324F4FA232204FE96
:101208006F000004832744FE93972700130704FF09
:10121800B307F70003A7C7F6B7170000938607E1DF
:10122800B71700001386872E832544FE1305070091
:10123800EFF00FA3832744FE938717002322F4FEC1
:10124800032744FE832784FAE34EF7FAEFF00F9D55
:101258001307C4F5B7170000938607E1B717000016
:101268001386872E832584FA13050700EFF00FB342
:10127800EFF0CF9A6F000000B707C001938787157A
:1012880023A00700232604FE6F00C00B8327C4FE9B
:1012980013972700B7074003B307F7001307F0FFBA
:1012A80023A0E7000327C4FEB7170000938707961B
:1012B800B307F70013972700B7074003938707EC96
:1012C800B307F7001307F0FF23A0E7000327C4FEC6
:1012D800B71700009387072CB307F7001397270069
:1012E800B7074003938707ECB307F7001307F0FF2E
:1012F80023A0E7000327C4FEB7270000938707C28F
:10130800B307F70013972700B7074003938707EC45
:10131800B307F7001307F0FF23A0E7008327C4FEF5
:1013280013972700B79740039387074CB307F70035
:101338001307F0FF23A0E7008327C4FE9387170055
:101348002326F4FE0327C4FE9307F004E3D0E7F452
:10135800232604FE6F0000090327C4FE9307070035
:1013680093972700B387E7009397670013870700D1
:10137800B7074003B307F7001307F0FF23A0E70000
:101388000327C4FE9307070093972700B387E70056
:101398009397670013870700B70740039387C70928
:1013A800B307F7001307F0FF23A0E7000327C4FEE5
:1013B8009307070093972700B387E7009397670081
:1013C80013870700B70740039387C713B307F700CE
:1013D8001307F0FF23A0E7008327C4FE93871700B5
:1013E8002326F4FE0327C4FE93077007E3D6E7F627
:1013F800EFF0CF82930580021305E001EFE09FF73D
:10140800B70740001385C734EFE05FD6B707400041
:101418001387074E9307C4F5930607001307800444
:10142800130607009385060013850700EF000048A0
:10143800930720012328F4FA232004FE6F00C00339
:10144800832704FE93972700130704FFB307F700C9
:1014580003A7C7F6B7170000938607E113068002B3
:10146800832504FE13050700EFE09FFF832704FE92
:10147800938717002320F4FE032704FE832704FB29
:10148800E340F7FCEFE09FF91307C4F5B717000036
:10149800938607E113068002832504FB13050700E2
:1014A800EFF0CF8FEFE09FF76F000000B707C001A4
:1014B8009387C71523A00700EFE05FF69305100098
:1014C8001305A005EFE01FEBB7074000138547376A
:1014D800EFE0DFC9B7074000138787529307C4F5C9
:1014E8009306070013078004130607009385060078
:1014F80013850700EF00803B93072001232AF4FAA5
:10150800232E04FC6F0000048327C4FD9397270053
:10151800130704FFB307F70003A7C7F6B7170000C0
:10152800938607E1B71700001386072C8325C4FDAF
:1015380013050700EFE0DFF28327C4FD9387170048
:10154800232EF4FC0327C4FD832744FBE34EF7FA5C
:10155800EFE0DFEC1307C4F5B7170000938607E147
:10156800B71700001386072C832544FB13050700D3
:10157800EFF0CF82EFE09FEA6F000000B707C002EC
:101588009387071523A00700EFE05FE99305100094
:1015980013051000EFE01FDEB70740001385073A78
:1015A800EFE0DFBCB7074000138707459307C4F592
:1015B80093060700130780041306070093850600A7
:1015C80013850700EF00802E93072001232CF4FADF
:1015D800232C04FC6F008003832784FD9397270046
:1015E800130704FFB307F70083A7C7F69306004B5A
:1015F80013060000832584FD13850700EFE05FE6EE
:10160800832784FD93871700232CF4FC032784FD8C
:10161800832784FBE342F7FCEFE05FE09307C4F520
:101628009306004B13060000832584FB13850700EF
:10163800EFF04F8BEFE09FDE6F000000B707C002AE
:101648009387471523A00700EFE05FDD930580022D
:101658001305C003EFE01FD2B70740001385873C8E
:10166800EFE0DFB0B7074000138787499307C4F559
:1016780093060700130780041306070093850600E6
:1016880013850700EF00802293072001232EF4FA28
:10169800232A04FC6F00C003832744FD9397270087
:1016A800130704FFB307F70003A7C7F69306004B19
:1016B800B71700001386872E832544FD13050700FE
:1016C800EFE01FDA832744FD93871700232AF4FCF1
:1016D800032744FD8327C4FBE340F7FCEFE01FD456
:1016E8001307C4F59306004BB71700001386872E1F
:1016F8008325C4FB13050700EFE0DFFEEFE01FD2F0
:101708006F000000B707C0029387871523A0070062
:10171800EFE0DFD09305800213051000EFE09FC5CE
:10172800B70740001385473FEFE05FA4B7074000C5
:101738001387074E9307C4F5930607001307800421
:10174800130607009385060013850700EF000016AF
:10175800930720012320F4FC232804FC6F00800356
:10176800832704FD93972700130704FFB307F700A7
:1017780083A7C7F69306004B13068002832504FD52
:1017880013850700EFE0DFCD832704FD938717005B
:101798002328F4FC032704FD832704FCE342F7FC19
:1017A800EFE0DFC79307C4F59306004B13068002EA
:1017B800832504FC13850700EFE0DFF2EFE01FC686
:1017C8006F000000B707C0029387C71523A0070062
:1017D800EFE0DFC4930510001305C003EFE09FB9E5
:1017E800B707400013850742EFE05F98B70740004E
:1017F800138787529307C4F59306070013078004DD
:10180800130607009385060013850700EF00000AFA
:10181800930720012322F4FC232604FC6F00C00355
:101828008327C4FC93972700130704FFB307F70027
:1018380003A7C7F69306004BB71700001386072CBB
:101848008325C4FC13050700EFE09FC18327C4FC70
:10185800938717002326F4FC0327C4FC832744FC42
:10186800E340F7FCEFE09FBB1307C4F59306004B7A
:10187800B71700001386072C832544FC13050700BF
:10188800EFE05FE6EFE09FB96F0000006F00000037
:101898001300000093070000138507008320C10A86
:1018A8000324810A1301010B67800000B3C7A50058
:1018B80093F73700B308C50063960706930730000F
:1018C80063F2C7069377350013070500639A070C80
:1018D80013F6C8FFB306E64093070002930200021E
:1018E80063C2D70693860500930707006378C7028B
:1018F80003A80600938747009386460023AE07FF98
:10190800E3E8C7FE9307F6FFB387E74093F7C7FFFF
:10191800938747003307F700B385F500636817011D
:101928006780000013070500E37C15FF83C70500E7
:101938001307170093851500A30FF7FEE36817FF39
:101948006780000083A6450083A7C50183AF050013
:1019580003AF850083AEC50003AE050103A34501AF
:1019680003A885012322D70083A605022320F701B7
:101978002324E7012326D7012328C701232A670048
:10198800232C0701232EF70013074702B307E6406D
:10199800232ED7FE93854502E3C6F2FA6FF09FF433
:1019A80083C605001307170093773700A30FD7FEE8
:1019B80093851500E38E07F083C60500130717000B
:1019C80093773700A30FD7FE93851500E39A07FC9A
:0419D8006FF01FF09D
:020000040040BA
:1000000057454C434F4D4520544F20544845204CB4
:100010004F545220465047410A00000041204455A9
:10002000414C20434F5245203820544852454144CA
:1000300020464142524943202E0A0000504C45417F
:100040005345205553452053574954434820544F56
:100050002053454C4543543A0A00000030303120CB
:100060003A2053595354454D20494E464F524D4125
:1000700054494F4E0A000000303130203A204C45A0
:10008000442053484F570A00313030203A2047521D
:10009000415048494320534F5254494E470A0000AB
:1000A00057454C434F4D4520544F20544845204C14
:1000B00045442053484F572E0A0000005345542012
:1000C00054484520465047412053574954434845DA
:1000D0005320544F2053454C454354205448452009
:1000E0004C45442046554E4354494F4E0A000000AB
:1000F000303030203A20414C4C204C454420424C7A
:10010000494E4B0A00000000303031203A2042496D
:100110004E41525920434F554E544552200A00003B
:10012000303130203A204F4E45204C4544204D4F31
:1001300056494E47204C4546540A00003031312084
:100140003A2044454352454153452042494E41528D
:100150005920434F554E5445520A0000313030204B
:100160003A204F4E45204C4544204D4F56494E476E
:100170002052494748540A00313031203A20372074
:1001800053454720434F554E544552200A00000026
:100190004C4F5452204641425249430A000000004D
:1001A00046504741202E0A00485720535953544582
:1001B0004D2050524F504552544945533A0A000081
:1001C0004E554D424552204F4620434F5245533ADB
:1001D00020320A004E554D424552204F4620544889
:1001E00052454144204541434820434F52453A201F
:1001F000340A000046504741204D4F44454C203AB8
:1002000020444531304C494748540A00494E535424
:1002100052554354494F4E204D454D4F525920534E
:10022000495A4520464F52204541434820434F52AA
:1002300045203A2038204B420A00000044415441F6
:10024000204D454D4F52592053495A4520464F5253
:10025000204541434820434F5245203A2038204B07
:10026000420A0000564741204D454D4F52592053F8
:10027000495A45203A203338204B420A00000000FA
:10028000534F4D4520435220464541545552455306
:10029000203A200A00000000465245455A452054A5
:1002A00048524541442050430A00000052455345FE
:1002B00054205448524541442050430A0000000055
:1002C00043524541544F52533A200A004144492079
:1002D0004C455659200A0000414D494348414920A8
:1002E00042454E204441564944200A005341415260
:1002F000204B41444F5348200A000000434F5245D1
:1003000020312054485245414420302C204255424F
:10031000424C4520534F52542052414E444F4D0AB7
:1003200000000000434F52452031205448524541BF
:100330004420312C20425542424C4520534F5254C8
:10034000203320554E495155450A0000434F524530
:1003500020312054485245414420322C20425542FD
:10036000424C4520534F5254205245564552534516
:100370000A000000434F5245203120544852454165
:100380004420332C20425542424C4520534F525476
:1003900020414C4D4F535420534F525445440A0072
:1003A000434F52452032205448524541442030208A
:1003B0002C494E53455254494F4E20534F525420CE
:1003C00052414E444F4D0A00434F52452032205473
:1003D000485245414420312C20494E5345525449FE
:1003E0004F4E20534F5254203320554E49515545BE
:1003F0000A000000434F52452032205448524541E4
:100400004420322C20494E53455254494F4E2053DC
:100410004F525420524556455253450A00000000A1
:10042000434F524520322054485245414420332CFA
:1004300020494E53455254494F4E20534F52542059
:10044000414C4D4F535420534F525445442E0A00B3
:100450000B00000005000000090000000D00000076
:100460001200000007000000010000000200000070
:100470000C0000000A00000004000000030000005F
:100480000E000000060000000F0000001100000038
:10049000080000001000000006000000120000002C
:1004A0000C0000000C00000006000000120000001C
:1004B0001200000006000000060000000C00000012
:1004C0000C000000120000000600000012000000F6
:1004D000060000000C000000120000000C000000EC
:1004E0001200000011000000100000000F000000CA
:1004F0000E0000000D0000000C0000000B000000CA
:100500000A000000090000000800000007000000C9
:1005100006000000050000000400000003000000C9
:1005200002000000010000000200000003000000C3
:1005300004000000050000000600000007000000A5
:1005400008000000090000000A0000000B00000085
:100550000C0000000D0000000E0000000F00000065
:100560001000000011000000120000000100000057
:100570002C0F0000F40F000080120000B4140000E3
:1005800084150000441600000C170000CC17000072
:10059000000000000000000000000000000000005B
:1005A000000000000000000000000000000000004B
:1005B000000000000000000000000000000000003B
:1005C000000000000000000000000000000000002B
:1005D000000000000000000000000000000000001B
:1005E000000000000000000000000000000000000B
:1005F00000000000000000000000000000000000FB
:1006000000000000000000000000000000000000EA
:1006100000000000000000000000000000000000DA
:1006200000000000000000000000000000000000CA
:1006300000000000000000000000000000000000BA
:1006400000000000000000000000000000000000AA
:10065000003C625200181C1A003C4240003C4240E0
:1006600000302824007E023E003C4202007E4030E2
:10067000003C4242003C42420000000000000000FA
:10068000000000000000000000000000000000006A
:100690000000000000183C66001E223E003C3E02A6
:1006A000001E3E22007E0606007E0606003C3E023C
:1006B00000666666007E1818006060600046663E50
:1006C000000606060042665A0062666E003C6666D8
:1006D000003E6666003C4242003E6666007C061EA6
:1006E000007E181800666666006666660042424232
:1006F0000066663C0066663C007E2010000000003C
:1007000000000000000000000000000000000000E9
:1007100000000000000000000000000000000000D9
:1007200000000000000000000000000000000000C9
:1007300000000000000000000000000000000000B9
:1007400000000000000000000000000000000000A9
:100750000000000000000000000000000000000099
:100760000000000000000000000000000000000089
:100770000000000000000000000000000000000079
:100780000000000000000000000000000000000069
:100790000000000000000000000000000000000059
:1007A0000000000000000000000000000000000049
:1007B0000000000000000000000000000000000039
:1007C0000000000018181E060000000000181800A5
:1007D000000000004A463C0018187E003C027E00E3
:1007E00038423C007E20200040423C003E423C001B
:1007F000080808003C423C007C403E00000000002D
:1008000000000000000000000000000000000000E8
:100810000000000000000000667E66003E221E0010
:10082000023E3C00223E1E007E067E007E06060042
:100830003A223C007E66660018187E0066667C00E0
:100840003E66460006067E005A4242007666460034
:1008500066663C003E06060052627C003E6666000C
:1008600078603E0018181800667E3C00663C180050
:100870005A7E42003C6666001818180008047E0084
:100880000000000000000000000000000000000068
:1008900000000000000000003010387C30103838B4
:1008A000301038383010387C3010383800000000F4
:1008B000BA48848278AC484478282810BA3810287E
:0808C0007C38484800000000EC
:04000003000000A851
:00000001FF
