:1000000013000000130000001300000013000000A4
:10001000130000006F0040009300000013810000F7
:10002000938100001382000093820000138300007C
:100030009383000013840000938400001385000064
:10004000938500001386000093860000138700004C
:100050009387000013880000938800001389000034
:1000600093890000138A0000938A0000138B00001C
:10007000938B0000138C0000938C0000138D000004
:10008000938D0000138E0000938E0000138F0000EC
:10009000938F0000B702C0009382C20003A1020048
:0800A000EF0080007300100066
:1000A800130101F92326810613040107B707C000CD
:1000B80083A70700232CF4FC232604FE93071000D3
:1000C800232AF4FC232404FE232204FE232004FE16
:1000D800232E04FC232804FC930700042328F4F8A7
:1000E80093079007232AF4F893074002232CF4F887
:1000F80093070003232EF4F8930790012320F4FAC2
:10010800930720012322F4FA930720002324F4FA0A
:10011800930780072326F4FA232804FA930780011B
:10012800232AF4FA93078000232CF4FA930730006B
:10013800232EF4FA930760042320F4FC930710029B
:100148002322F4FC930760002324F4FC9307E000C7
:100158002326F4FC9307F0072328F4FC032784FDE7
:1001680093077000630CF714032784FD930770004E
:1001780063CCE718032784FD930760006304F70E38
:10018800032784FD9307600063C0E718032784FDF5
:1001980093074000630CF706032784FD930750007C
:1001A8006314F7166F0000018327C4FE93871700B6
:1001B8002326F4FE0327C4FE9307900FE3D6E7FE39
:1001C800832784FE138717002324E4FE37270003C0
:1001D8001307070193972700930604FFB387F600D8
:1001E80083A707FA2320F700032784FE930700015B
:1001F80063D4E700232404FE232604FE6FF09FFB4C
:100208008327C4FE938717002326F4FE0327C4FE22
:100218009307900FE3D6E7FE832744FE1387170062
:100228002322E4FE3727000313074700939727008C
:10023800930604FFB387F60083A707FA2320F70085
:10024800032744FE9307000163D4E700232204FE3A
:10025800232604FE6FF09FFB8327C4FE93871700B5
:100268002326F4FE0327C4FE9307900FE3D6E7FE88
:10027800832704FE138717002320E4FE3727000393
:100288001307870093972700930604FFB387F600A8
:1002980083A707FA2320F700032704FE930700012A
:1002A80063D4E700232004FE232604FE6FF09FFB9F
:1002B8008327C4FE938717002326F4FE0327C4FE72
:1002C8009307900FE3D6E7FE8327C4FD1387170033
:1002D800232EE4FC372700031307C7009397270052
:1002E800930604FFB387F60083A707FA2320F700D5
:1002F8000327C4FD9307000163D4E700232E04FC01
:0C030800232604FE6FF09FFB6F00000036
:04000003000000A851
:00000001FF
