:1000000013000000130000001300000013000000A4
:10001000130000006F0040009300000013810000F7
:10002000938100001382000093820000138300007C
:100030009383000013840000938400001385000064
:10004000938500001386000093860000138700004C
:100050009387000013880000938800001389000034
:1000600093890000138A0000938A0000138B00001C
:10007000938B0000138C0000938C0000138D000004
:10008000938D0000138E0000938E0000138F0000EC
:10009000938F0000B702C0009382C20003A1020048
:0800A000EF0010607300100076
:1000A800130101FD2326810213040103232EA4FC5E
:1000B800232CB4FC232AC4FC032784FD93070700E0
:1000C80093972700B387E700939767002326F4FEEA
:1000D800832744FD939727002324F4FE032784FEF7
:1000E8008327C4FE3307F700B7074003B307F700B9
:1000F8002322F4FE032784FE8327C4FE3307F70078
:10010800B707400393870714B307F7002320F4FECB
:100118008327C4FD13972700B717400093870790DC
:10012800B307F70003A70700832744FE23A0E700CF
:100138008327C4FD13972700B7174000938707A0AC
:10014800B307F70003A70700832704FE23A0E700EF
:10015800130000000324C10213010103678000009B
:10016800130101FF2326810013040101B717400082
:100178009387079823A00700B7174000938707A81D
:1001880023A00700B71740009387079C37476252A0
:10019800130707C023A0E700B7174000938707ACF1
:1001A80037473C001307A76423A0E700B7174000B0
:1001B8009387479C37271C1A1307078023A0E7005B
:1001C800B7174000938747AC37277E00130787810E
:1001D80023A0E700B71740009387879C3747424022
:1001E800130707C023A0E700B7174000938787AC21
:1001F80037077E001307C72323A0E700B71740007F
:100208009387C79C37474240130707C023A0E700DE
:10021800B71740009387C7AC37473C0013078723BD
:1002280023A0E700B71740009387079D3737282496
:1002380023A0E700B7174000938707AD37272000B2
:100248001307E70723A0E700B71740009387479DE8
:100258003787023E130707E023A0E700B7174000DF
:10026800938747AD37473C001307072423A0E700CF
:10027800B71740009387879D37474202130707C087
:1002880023A0E700B7174000938787AD37473C00A6
:100298001307E72323A0E700B71740009387C79DFC
:1002A80037874030130707E023A0E700B71740005F
:1002B8009387C7AD371708001307878023A0E70087
:1002C800B71740009387079E37474242130707C076
:1002D80023A0E700B7174000938707AE37473C00D5
:1002E8001307C72323A0E700B71740009387479E4B
:1002F80037474242130707C023A0E700B71740005B
:10030800938747AE37473E001307C70723A0E70088
:10031800B7174000938747A037273C661307078025
:1003280023A0E700B7174000938747B037876600D8
:10033800130767E623A0E700B71740009387C7A015
:1003480037473E02130707C023A0E700B71740004E
:100358009387C7B037473C00130727E023A0E7007F
:10036800B7174000938747A137870606130707E0AA
:1003780023A0E700B7174000938747B137077E00EF
:100388001307E76723A0E700B71740009387C7A1C3
:1003980037473E02130707C023A0E700B7174000FE
:1003A8009387C7B137273C001307A72323A0E7008B
:1003B800B7174000938747A33747665A13070720A4
:1003C80023A0E700B7174000938747B33747420099
:1003D8001307A72523A0E700B71740009387C7A3F3
:1003E80037476666130707C023A0E700B717400022
:1003F8009387C7B337673C001307676623A0E700F6
:10040800B7174000938787A437476666130707E046
:1004180023A0E700B7174000938787B437676600C3
:100428001307E76323A0E700B71740009387C7A423
:100438003787061E130707C023A0E700B717400039
:100448009387C7B437673E001307870723A0E700E1
:10045800B7174000938707A63767663C13070760FE
:1004680023A0E700B7174000938707B637676600F1
:100478001307C76323A0E700B71740009387C79AFD
:100488001307F0FF23A0E700B71740009387C7AA18
:100498001307F0FF23A0E700130000000324C100A6
:1004A8001301010167800000130101FE232E1100D2
:1004B800232C8100130401022326A4FE2324B4FE66
:1004C800832784FE93876700138607008325C4FE6D
:1004D80013057004EFF0DFBC832784FE9387770051
:1004E800138607008325C4FE13051004EFF05FBBD5
:1004F800832784FE93878700138607008325C4FE1D
:100508001305D004EFF0DFB9832784FE93879700A3
:10051800138607008325C4FE13055004EFF05FB867
:10052800832784FE9387A700138607008325C4FECC
:1005380013050002EFF0DFB6832784FE9387B70028
:10054800138607008325C4FE13053005EFF05FB559
:10055800832784FE9387C700138607008325C4FE7C
:1005680013053004EFF0DFB3832784FE9387D700A9
:10057800138607008325C4FE1305F004EFF05FB26D
:10058800832784FE9387E700138607008325C4FE2C
:1005980013052005EFF0DFB0832784FE9387F7006B
:1005A800138607008325C4FE13055004EFF05FAFE0
:1005B800130000008320C1010324810113010102FB
:1005C80067800000130101FE232E1100232C8100F7
:1005D80013040102232604FE6F008004232404FE72
:1005E8006F008002832784FE939717000326C4FEBA
:1005F8009385070013050002EFF09FAA832784FE66
:10060800938717002324F4FE032784FE9307B0037F
:10061800E3DAE7FC8327C4FE938717002326F4FE5A
:100628000327C4FE9307F004E3DAE7FA1300000097
:10063800130000008320C10103248101130101027A
:1006480067800000130101FE232E1100232C810076
:1006580013040102232604FE6F0000030326C4FED0
:10066800930500001305B002EFF09FA30326C4FE14
:10067800930560071305B002EFF09FA28327C4FE1D
:10068800938717002326F4FE0327C4FE9307F0047C
:10069800E3D6E7FC232404FE6F000004832784FECE
:1006A8009397170013060000938507001305B002FF
:1006B800EFF01F9F832784FE939717001306F0041B
:1006C800938507001305B002EFF09F9D832784FEF2
:1006D800938717002324F4FE032784FE9307B003AF
:1006E800E3DEE7FA13000000130000008320C101D5
:1006F800032481011301010267800000130101FE38
:10070800232E8100130401022326A4FE6F0000019A
:100718008327C4FE9387F7FF2326F4FE8327C4FEAE
:10072800E348F0FE13000000130000000324C10199
:100738001301010267800000130101FD23268102D5
:1007480013040103232EA4FCB727C0039387C70211
:1007580083A707002326F4FE0327C4FE930710008F
:100768006308F7020327C4FE930740006302F702F9
:100778000327C4FE93078000630CF7000327C4FE19
:10078800930720006306F7008327C4FD2326F4FEA1
:100798000327C4FD93071000631CF7000327C4FE5A
:1007A800930780006316F7008327C4FD2326F4FE11
:1007B8000327C4FD93078000631CF7000327C4FECA
:1007C800930710006316F7008327C4FD2326F4FE61
:1007D8000327C4FD93074000631CF7000327C4FEEA
:1007E800930720006316F7008327C4FD2326F4FE31
:1007F8000327C4FD93072000631CF7000327C4FEEA
:10080800930740006316F7008327C4FD2326F4FEF0
:100818008327C4FE138507000324C10213010103C3
:1008280067800000130101FD2326810213040103E0
:10083800232EA4FC232CB4FC232AC4FC2328D4FC98
:10084800832704FD9387F7FF2326F4FE6F008007B4
:100858000327C4FEB70700409387F7FFB307F700E5
:1008680093972700032784FD3307F7008327C4FEE7
:1008780093972700832684FDB387F6000327070094
:1008880023A0E7000327C4FEB70700409387F7FFBC
:10089800B307F70093972700032744FD3307F700B2
:1008A8008327C4FE93972700832644FDB387F60069
:1008B8000327070023A0E7008327C4FE9387F7FFD9
:1008C8002326F4FE8327C4FEE344F0F80327C4FD7F
:1008D800930740006316F702832784FD03A74700A8
:1008E800832784FD23A0E700832744FD93874700DF
:1008F80083A707001387F7FF832744FD23A0E7009A
:100908000327C4FD930720006316F702832784FD9D
:1009180003A74700832784FD23A0E700832744FD1E
:100928009387470083A7070013871700832744FD91
:1009380023A0E7000327C4FD930780006316F7028E
:10094800832784FD9387470083A707001387F7FF52
:10095800832784FD23A0E700832744FD03A74700DE
:10096800832744FD23A0E7000327C4FD9307100055
:100978006316F702832784FD9387470083A7070040
:1009880013871700832784FD23A0E700832744FDEE
:1009980003A74700832744FD23A0E7008327C4FD5E
:1009A80063960702832784FD9387470083A7070080
:1009B80013871700832784FD23A0E700832744FDBE
:1009C80003A74700832744FD23A0E7001300000086
:1009D8000324C1021301010367800000130101FC15
:1009E800232E1102232C810213040104232EA4FCBC
:1009F800232CB4FC232AC4FC2328D4FC2326E4FC9F
:100A0800232604FE6F00000F8327C4FE9397270058
:100A1800032784FDB307F70083A707006386070C45
:100A28008327C4FE93972700032704FDB307F70025
:100A380083A70700939617008327C4FE9397270080
:100A4800032744FDB307F70083A7070013860700B1
:100A5800938506001305B002EFF08FE48327C4FEE8
:100A68009387170093972700032784FDB307F700A0
:100A780083A70700639A07068327C4FD63840702D8
:100A88008327C4FE9387170093972700032784FDC5
:100A9800B307F7001307100023A0E700232E04FC78
:100AA8006F0080048327C4FE93871700939727005D
:100AB800032704FDB307F70083A7070093961700E1
:100AC8008327C4FE9387170093972700032744FDC5
:100AD800B307F70083A7070013860700938506006E
:100AE80013050002EFF0CFDB8327C4FE93871700BE
:100AF8002326F4FE0327C4FE8327C4FCE346F7F04D
:100B080013000000130000008320C10303248103A5
:100B18001301010467800000130101FC232E8102E8
:100B280013040104232EA4FC232CB4FC232AC4FCA4
:100B38002328D4FC2326E4FC2324F4FC032784FD87
:100B4800832704FD631CF700032744FD8327C4FCA7
:100B58006316F700930710006F00800093070000EA
:100B68002326F4FE8327C4FE638C0700832784FCB6
:100B780083A7070013871700832784FC23A0E700B7
:100B88008327C4FE138507000324C103130101044E
:100B980067800000130101FD23268102130401036D
:100BA800232EA4FC232CB4FC232604FE8327C4FD97
:100BB80063960700930710002326F4FE0327C4FD5D
:100BC8009307F0046316F700930710002326F4FE3A
:100BD800832784FD63960700930710002326F4FEFD
:100BE800032784FD9307B0036316F70093071000EB
:100BF8002326F4FE8327C4FE138507000324C102BD
:100C08001301010367800000130101FE232E110068
:100C1800232C8100130401022326A4FE2324B4FEFE
:100C2800832784FE83A707009305300013850700F8
:100C3800EF00402C93070500138707008327C4FEA5
:100C480083A707009385070013050700EF004028D6
:100C580093070500138707009357F74193D7A70118
:100C68003307F7001377F703B307F7401387170025
:100C78008327C4FE23A0E7008327C4FE83A70700B9
:100C880013D7F74113773700B307F70093D72740F7
:100C980013870700832784FE83A70700938507002F
:100CA80013050700EF00C02293070500138707000C
:100CB8009357F74193D7B7013307F7001377F70135
:100CC800B307F74013871700832784FE23A0E700A4
:100CD800130000008320C1010324810113010102D4
:100CE80067800000130101F12326110E2324810ED1
:100CF8001304010F930710002326F4FE93075000F6
:100D08002322F4F2930750002320F4F2232E04F058
:100D1800232404FE232204FEEFF0DF92232004FEA6
:100D28006F008006832704FE13874701832704FE8C
:100D380093972700938707FFB387870023A8E7FACD
:100D4800832704FE93972700938707FFB3878700BD
:100D58001307400123AAE7F6832704FE93A7570049
:100D680093F7F70F13870700832704FE939727004D
:100D7800938707FFB387870023ACE7F2832704FE36
:100D8800938717002320F4FE032704FE9307E0004F
:100D9800E3DAE7F80325C4FEEFF01F9A2326A4FE42
:100DA800832744FE63900702130744F6930704FA67
:100DB8009306F00013060700938507000325C4FE79
:100DC800EFF05FA6832504FA032644F6832644F24F
:100DD800032704F29307C4F1130584F2EFF0DFD37D
:100DE800232EA4FC0327C4FD930710006312F70207
:100DF800130704F2930744F29305070013850700CD
:100E0800EFF09FE0832784FE938717002324F4FEE6
:100E1800832704F293971700032744F21306070069
:100E2800938507001305F004EFF08FA7930644F6A7
:100E3800130604FA930784F21307F000938507005A
:100E48000325C4FDEFF09FB9930540011305300059
:100E5800EFF08FE5832784FE93870703130670025C
:100E68009305300013850700EFF08FA3832704FA5A
:100E7800032744F69305070013850700EFF09FD179
:100E88002322A4FE232E04FCB7570000138507E293
:100E9800EFF0DF866FF01FF0130101FE232E110023
:100EA800232C810013040102B707C00083A70700A1
:100EB8002326F4FEEFF0CFAAEFF0CFF00327C4FE0D
:100EC800930740006314F700EFF0DFE16F000000C4
:100ED800130605001305000093F615006384060049
:100EE8003305C50093D5150013161600E39605FEC5
:100EF800678000006340050663C605061386050083
:100F0800930505001305F0FF630C06029306100015
:100F1800637AB6006358C00013161600939616003D
:100F2800E36AB6FE1305000063E6C500B385C54055
:100F38003365D50093D6160013561600E39606FEC1
:100F48006780000093820000EFF05FFB13850500C7
:100F5800678002003305A0406348B000B305B04085
:100F68006FF0DFF9B305B04093820000EFF01FF98E
:100F78003305A040678002009382000063CA050021
:100F8800634C0500EFF09FF71385050067800200AA
:100F9800B305B040E35805FE3305A040EFF01FF657
:080FA8003305B0406780020030
:04000003000000A851
:00000001FF
