:1000000013000000130000001300000013000000A4
:10001000130000006F0040009300000013810000F7
:10002000938100001382000093820000138300007C
:100030009383000013840000938400001385000064
:10004000938500001386000093860000138700004C
:100050009387000013880000938800001389000034
:1000600093890000138A0000938A0000138B00001C
:10007000938B0000138C0000938C0000138D000004
:10008000938D0000138E0000938E0000138F0000EC
:10009000938F0000B702C0009382C20003A1020048
:0800A000EF001057730010007F
:1000A800130101FE232E810013040102232604FEFE
:1000B8006F0000018327C4FE938717002326F4FEF0
:1000C8000327C4FEB74701009387F787E3D4E7FE09
:1000D80013000000130000000324C10113010102F2
:1000E80067800000130101FC232E81021304010420
:1000F8002326A4FC2324B4FC2322C4FC832784FCE9
:100108009387171493971700032744FCB307F70046
:100118002322F4FEB7170000938707E12320F4FE9B
:100128000327C4FC9307070093972700B387E700CA
:100138009397470093871700232EF4FC232604FE89
:100148006F004003032744FE8327C4FE3307F740AC
:10015800832704FEB307F70013972700B707400368
:10016800B307F70023A007008327C4FE938707057A
:100178002326F4FE0327C4FEB717000093870796CB
:10018800E3D2E7FC232404FE6F008003032744FE28
:10019800832784FE3307F740832704FEB307F7005D
:1001A80013972700B7074003B307F7001307F0FFBB
:1001B80023A0E700832784FE938707052324F4FE02
:1001C800032784FE8327C4FDE342F7FC13000000E5
:1001D800130000000324C103130101046780000019
:1001E800130101FD2326810213040103232EA4FC1D
:1001F800232CB4FC8327C4FD83C70700A307F4FEA0
:10020800832784FD03C707008327C4FD2380E700F5
:10021800832784FD0347F4FE2380E70013000000D2
:100228000324C1021301010367800000130101FDCB
:10023800232611022324810213040103232EA4FC84
:10024800232CB4FC232604FE6F00000E232404FE96
:100258006F00400B832784FE0327C4FDB307F70014
:1002680003C70700832784FE938717008326C4FDEE
:10027800B387F60083C7070063F0E708832784FE87
:100288000327C4FDB306F700832784FE938717006E
:100298000327C4FDB307F7009385070013850600FD
:1002A800EFF01FF4832784FE0327C4FDB307F7008C
:1002B80083C7070013068002832584FE1385070081
:1002C800EFF05FE2832784FE938717000327C4FDBE
:1002D800B307F70083C7070013870700832784FE47
:1002E80093871700130680029385070013050700FC
:1002F800EFF05FDFEFF0DFDA832784FE93871700E4
:100308002324F4FE032784FD8327C4FEB307F740A4
:100318009387F7FF032784FEE34EF7F28327C4FE93
:10032800938717002326F4FE832784FD9387F7FF1E
:100338000327C4FEE34CF7F013000000130000008D
:100348008320C10203248102130101036780000096
:10035800130101FD23261102232481021304010342
:10036800232EA4FC9387050013070600A30DF4FCB5
:1003780093070700230DF4FC8347A4FD0327C4FD5E
:10038800B307F70083C70700A303F4FE8347B4FD50
:100398009387F7FFA307F4FE8347B4FD2324F4FEF5
:1003A8006F00800C832784FE0327C4FDB307F70082
:1003B80083C70700034774FE6362F70A8347F4FEA6
:1003C80093871700A307F4FE8347F4FE0327C4FDB1
:1003D800B306F700832784FE0327C4FDB307F7009D
:1003E8009385070013850600EFF09FDF8347F4FE2F
:1003F8000327C4FDB307F70083C707001387070067
:100408008347F4FE130600009385070013050700D1
:10041800EFF05FCD832784FE0327C4FDB307F70001
:1004280083C7070013060000832584FE1385070091
:10043800EFF05FCB8347F4FE0327C4FDB307F70053
:1004480003C70700832784FE8326C4FDB387F6000D
:1004580083C707006304F700EFF09FC4832784FE77
:10046800938717002324F4FE8347A4FD032784FE03
:10047800E34AF7F28347F4FE938717000327C4FD86
:10048800B306F7008347A4FD0327C4FDB307F700AD
:100498009385070013850600EFF09FD48347F4FE89
:1004A800938717000327C4FDB307F70083C7070026
:1004B800138707008347F4FE93871700130600008D
:1004C8009385070013050700EFF0DFC18347A4FDFC
:1004D8000327C4FDB307F70083C707001387070086
:1004E8008347A4FD13060000938507001305070042
:1004F800EFF05FBF8347F4FE938717000327C4FD1F
:10050800B307F70003C707008347A4FD8326C4FD8C
:10051800B387F60083C707006304F700EFF05FB8FE
:100528008347F4FE93871700138507008320C102D1
:10053800032481021301010367800000130101FDF8
:10054800232611022324810223229102130401038A
:10055800232EA4FC93860500A30DD4FC9306060065
:10056800230DD4FC93060100938406000346A4FDE2
:100578008346B4FDB306D640938616001386F6FF6D
:100588002324C4FE13860600130E0600930E0000F3
:100598001356DE0193983E00B368160113183E0007
:1005A8001386060013030600930300001356D301B5
:1005B80093973300B367F600131733009387060049
:1005C8009387F70093D74700939747003301F1408B
:1005D80093070100938707002322F4FE9307F0FF97
:1005E8002326F4FE8327C4FE938717002326F4FEF0
:1005F800032744FE8327C4FEB307F7000347B4FD6F
:100608002380E7008327C4FE938717002326F4FE80
:10061800032744FE8327C4FEB307F7000347A4FD5E
:100628002380E7006F00C0108327C4FE1387F7FFFD
:100638002326E4FE032744FEB307F70083C7070019
:10064800230DF4FC8327C4FE1387F7FF2326E4FE5B
:10065800032744FEB307F70083C70700A30DF4FC84
:100668000347A4FD8347B4FD1306070093850700DD
:100678000325C4FDEFF0DFCD93070500A301F4FEC9
:10068800834734FE1387F7FF8347B4FD63D6E70437
:100698008327C4FE938717002326F4FE032744FE0E
:1006A8008327C4FEB307F7000347B4FD2380E700A0
:1006B8008327C4FE938717002326F4FE834734FE5E
:1006C8009387F7FF13F7F70F832644FE8327C4FEAB
:1006D800B387F6002380E700834734FE13871700AB
:1006E8008347A4FD6356F7048327C4FE9387170046
:1006F8002326F4FE834734FE9387170013F7F70F7A
:10070800832644FE8327C4FEB387F6002380E700D0
:100718008327C4FE938717002326F4FE032744FE8D
:100728008327C4FEB307F7000347A4FD2380E7002F
:100738008327C4FEE3DA07EE1381040013000000E8
:10074800130104FD8320C102032481028324410292
:100758001301010367800000130101FE232E8100AD
:10076800130401022326A4FE2324B4FE0327C4FE97
:10077800832784FE6354F700930707001385070057
:100788000324C1011301010267800000130101FD68
:10079800232611022324810213040103232EA4FC1F
:1007A800232CB4FC930710002326F4FE6F00800B63
:1007B800232404FE6F004009032784FE8327C4FE18
:1007C800B307F7001387F7FF832784FD9387F7FFA5
:1007D8009385070013050700EFF01FF82322A4FEF6
:1007E8008327C4FE13971700832784FEB307F700F7
:1007F8001387F7FF832784FD9387F7FF9385070007
:1008080013050700EFF05FF52320A4FE832784FE7D
:1008180093F7F70F032744FE1377F70F832604FE99
:1008280093F6F60F13060700938507000325C4FD0A
:10083800EF0080058327C4FE93971700032784FEE3
:10084800B307F7002324F4FE832784FD9387F7FF7B
:10085800032784FEE342F7F68327C4FE9397170025
:100868002326F4FE032784FD8327C4FEE3C2E7F4AE
:1008780013000000130000008320C102032481023A
:100888001301010367800000130101FA232E1104EC
:10089800232C8104232A91042328210523263105AA
:1008A800232441052322510523206105232E7103AA
:1008B800130401062326A4FA1385050093050600F0
:1008C8001386060093060500A305D4FA938605004F
:1008D8002305D4FA93060600A304D4FA930601006C
:1008E800938406000346A4FA8346B4FAB306D640B6
:1008F80093F6F60F938616002306D4FC034694FA63
:100908008346A4FAB306D640A305D4FC8346C4FCA8
:10091800138606001306F6FF2322C4FC138B060079
:10092800930B00001356DB01939E3B00B36ED60178
:10093800131E3B00138A0600930A00001356DA01BF
:1009480093933A00B363760013133A009386F60044
:1009580093D64600939646003301D1409306010092
:10096800938606002320D4FC8346B4FC1386060035
:100978001306F6FF232EC4FA138906009309000014
:100988001356D90193983900B36816011318390022
:10099800138F0600930F00001356DF0193973F0053
:1009A800B367F60013173F00938706009387F70095
:1009B80093D74700939747003301F140930701000D
:1009C80093870700232CF4FAA30604FC6F00C003E6
:1009D8000347B4FA8347D4FCB307F700138707002B
:1009E8008327C4FA3387E7008347D4FC034707000B
:1009F800832604FCB387F6002380E7008347D4FCF2
:100A080093871700A306F4FC0347D4FC8347C4FC70
:100A1800E360F7FC230704FC6F0000048347A4FA93
:100A2800138717008347E4FCB307F7001387070011
:100A38008327C4FA3387E7008347E4FC03470700AA
:100A4800832684FBB387F6002380E7008347E4FC12
:100A5800938717002307F4FC0347E4FC8347B4FC9F
:100A6800E36EF7FAA30604FC230704FC8347B4FAF1
:100A7800A307F4FC6F00000F8347D4FC032704FC92
:100A8800B307F70003C707008347E4FC832684FB0A
:100A9800B387F60083C7070063E2E7060347D4FC81
:100AA8008347F4FC8326C4FAB387F600832604FC44
:100AB8003387E600034707002380E7008347F4FCF9
:100AC8000327C4FAB307F70083C707009386070014
:100AD8000347F4FCB71700001386072C930507009B
:100AE80013850600EFF00FE0EFF08FDB8347D4FCAF
:100AF80093871700A306F4FC6F0000060347E4FC85
:100B08008347F4FC8326C4FAB387F600832684FB64
:100B18003387E600034707002380E7008347F4FC98
:100B28000327C4FAB307F70083C7070093860700B3
:100B38000347F4FCB71700001386072C930507003A
:100B480013850600EFF00FDAEFF08FD58347E4FC4A
:100B5800938717002307F4FC8347F4FC9387170057
:100B6800A307F4FC0347D4FC8347C4FC637EF70661
:100B78000347E4FC8347B4FCE360F7F06F00C0066A
:100B88000347D4FC8347F4FC8326C4FAB387F600F2
:100B9800832604FC3387E600034707002380E70029
:100BA8008347F4FC0327C4FAB307F70083C7070099
:100BB800938607000347F4FCB71700001386072C39
:100BC8009305070013850600EFF0CFD1EFF04FCD66
:100BD8008347D4FC93871700A306F4FC8347F4FCEF
:100BE80093871700A307F4FC0347D4FC8347C4FC8E
:100BF800E368F7F86F00C0060347E4FC8347F4FC9A
:100C08008326C4FAB387F600832684FB3387E6007D
:100C1800034707002380E7008347F4FC0327C4FA4F
:100C2800B307F70083C70700938607000347F4FC60
:100C3800B71700001386072C9305070013850600D5
:100C4800EFF04FCAEFF0CFC58347E4FC9387170056
:100C58002307F4FC8347F4FC93871700A307F4FCED
:100C68000347E4FC8347B4FCE368F7F81381040006
:100C780013000000130104FA8320C1050324810531
:100C880083244105032901058329C104032A81041A
:100C9800832A4104032B0104832BC103130101069A
:100CA80067800000130101FD23261102232481021D
:100CB80013040103232EA4FC232CB4FC9307100077
:100CC8002326F4FE6F0000128327C4FE93972700A3
:100CD8000327C4FDB307F70083A707002322F4FE08
:100CE8008327C4FE9387F7FF2324F4FE6F00400791
:100CF800832784FE939727000327C4FD3307F70053
:100D0800832784FE93871700939727008326C4FDC3
:100D1800B387F6000327070023A0E700832784FE94
:100D280093871700939727000327C4FDB307F7009D
:100D380003A70700832784FE93861700B7170000D0
:100D48001386872E9385060013050700EFF08FB9E9
:100D5800EFF00FB5832784FE9387F7FF2324F4FE73
:100D6800832784FE63C00702832784FE93972700A6
:100D78000327C4FDB307F70083A70700032744FE32
:100D8800E348F7F6832784FE938717009397270095
:100D98000327C4FDB307F700032744FE23A0E70099
:100DA800832784FE93871700939727000327C4FDA2
:100DB800B307F70003A70700832784FE938617006D
:100DC800B71700001386872E9385060013050700C2
:100DD800EFF04FB1EFF0CFAC8327C4FE9387170035
:100DE8002326F4FE0327C4FE832784FDE34EF7EC95
:100DF80013000000130000008320C10203248102B5
:100E08001301010367800000130101F4232E110A66
:100E1800232C810A1304010CB707C00083A707001D
:100E2800232CF4FC032784FD930770006302F74624
:100E3800032784FD9307700063CCE754032784FDE0
:100E480093076000630CF722032784FD9307600073
:100E580063C0E754032784FD93074000630AF70043
:100E6800032784FD93075000630AF7106F00405270
:100E7800EFF00FA39307B000230AF4FA930750008A
:100E8800A30AF4FA93079000230BF4FA9307D0000F
:100E9800A30BF4FA93072001230CF4FA93077000CC
:100EA800A30CF4FA93071000230DF4FA930720001B
:100EB800A30DF4FA9307C000230EF4FA9307A000D9
:100EC800A30EF4FA93074000230FF4FA93073000B7
:100ED800A30FF4FA9307E0002300F4FC93076000E3
:100EE800A300F4FC9307F0002301F4FC930710011E
:100EF800A301F4FC930780002302F4FC930700018C
:100F0800A302F4FC930720012324F4FC232404FE09
:100F18006F000003832784FE130704FFB307F7005D
:100F280083C747FC13060000832584FE138507004A
:100F3800EFF04F9B832784FE938717002324F4FE4A
:100F4800032784FE832784FCE346F7FCEFF04F95E4
:100F5800832784FC93F7F70F9387F7FF13F7F70FAF
:100F6800930744FB13060700930500001385070049
:100F7800EFF0CFDCEFF0CF926FF09FEFEFF04F92F2
:100F88009307B0002322F4F4930750002324F4F4C9
:100F9800930790002326F4F49307D0002328F4F451
:100FA80093072001232AF4F493077000232CF4F408
:100FB80093071000232EF4F4930720002320F4F65F
:100FC8009307C0002322F4F69307A0002324F4F625
:100FD800930740002326F4F6930730002328F4F6FD
:100FE8009307E000232AF4F693076000232CF4F615
:100FF8009307F000232EF4F6930710012320F4F84A
:10100800930780002322F4F8930700012324F4F8BF
:10101800930720012326F4FC232204FE6F0080039B
:10102800832744FE93972700130704FFB307F700AD
:1010380003A747F5B71700001386872E832544FEBC
:1010480013050700EFF00F8A832744FE93871700E4
:101058002322F4FE032744FE8327C4FCE342F7FC63
:10106800EFF00F84930744F48325C4FC138507002D
:10107800EFF05FC3EFF0CF826FF05FF0232604FE3E
:101088006F00C0068327C4FE13972700B7074003E5
:10109800B307F7001307F0FF23A0E7000327C4FEF8
:1010A800B71700009387072CB307F700139727009B
:1010B800B7074003938707ECB307F7001307F0FF60
:1010C80023A0E7008327C4FE13972700B7974003A0
:1010D8009387074CB307F7001307F0FF23A0E70037
:1010E8008327C4FE938717002326F4FE0327C4FE34
:1010F8009307F004E3D8E7F8232604FE6F000009FD
:101108000327C4FE9307070093972700B387E700D8
:101118009397670013870700B7074003B307F700E3
:101128001307F0FF23A0E7000327C4FE9307070077
:1011380093972700B387E700939767001387070003
:10114800B70740039387C709B307F7001307F0FFF2
:1011580023A0E7000327C4FE9307070093972700FF
:10116800B387E7009397670013870700B707400323
:101178009387C713B307F7001307F0FF23A0E7000F
:101188008327C4FE938717002326F4FE0327C4FE93
:1011980093077007E3D6E7F6EFE09FF09307B000F8
:1011A8002300F4FA93075000A300F4FA9307900081
:1011B8002301F4FA9307D000A301F4FA930720015E
:1011C8002302F4FA93077000A302F4FA93071000BD
:1011D8002303F4FA93072000A303F4FA9307C0004B
:1011E8002304F4FA9307A000A304F4FA9307400039
:1011F8002305F4FA93073000A305F4FA9307E000F7
:101208002306F4FA93076000A306F4FA9307F000A4
:101218002307F4FA93071001A307F4FA9307800051
:101228002308F4FA93070001A308F4FA93072001AE
:101238002328F4FC232004FE6F000003832704FE08
:10124800130704FFB307F70083C707FB13068002E1
:10125800832504FE13850700EFE0DFE8832704FEFB
:10126800938717002320F4FE032704FE832704FD39
:10127800E346F7FCEFE0DFE2930704FA832504FD79
:1012880013850700EFE09FFAEFE09FE16FF0DFF0D2
:10129800EFE01FE19307B0002306F4F8930750002E
:1012A800A306F4F8930790002307F4F89307D000F7
:1012B800A307F4F8930720012308F4F893077000B4
:1012C800A308F4F8930710002309F4F89307200003
:1012D800A309F4F89307C000230AF4F89307A000C1
:1012E800A30AF4F893074000230BF4F8930730009F
:1012F800A30BF4F89307E000230CF4F893076000BD
:10130800A30CF4F89307F000230DF4F893071001E9
:10131800A30DF4F893078000230EF4F89307000157
:10132800A30EF4F893072001232AF4FC232E04FCCF
:101338006F0080038327C4FD130704FFB307F7007A
:1013480083C7C7F913870700B71700001386072C50
:101358008325C4FD13050700EFE0DFD88327C4FD0C
:1013680093871700232EF4FC0327C4FD832744FD2D
:10137800E342F7FCEFE0DFD29307C4F8832544FD8E
:1013880013850700EFF08FC0EFE09FD16FF05FF09B
:041398006F000000E2
:04000003000000A851
:00000001FF
