:1000000013000000130000001300000013000000A4
:10001000130000006F0040009300000013810000F7
:10002000938100001382000093820000138300007C
:100030009383000013840000938400001385000064
:10004000938500001386000093860000138700004C
:100050009387000013880000938800001389000034
:1000600093890000138A0000938A0000138B00001C
:10007000938B0000138C0000938C0000138D000004
:10008000938D0000138E0000938E0000138F0000EC
:10009000938F0000B702C0009382C20003A1020048
:0800A000EF00C04373001000E3
:1000A800130101FE232E810013040102232604FEFE
:1000B8006F0000018327C4FE938717002326F4FEF0
:1000C8000327C4FEB74701009387F787E3D4E7FE09
:1000D80013000000130000000324C10113010102F2
:1000E80067800000130101FD232681021304010328
:1000F800232EA4FC232CB4FC232AC4FC2328D4FCE0
:10010800832784FD9387171493971700032744FDCB
:10011800B307F7002322F4FE0327C4FD9307070063
:1001280093972700B387E7009397470093871700B3
:100138002320F4FE232604FE6F004003032744FE19
:100148008327C4FE3307F740832704FDB307F7006E
:1001580013972700B7074003B307F70023A007004A
:100168008327C4FE938707052326F4FE0327C4FECE
:1001780093070064E3D4E7FC232404FE6F008003A4
:10018800032744FE832784FE3307F740832704FDB3
:10019800B307F70013972700B7074003B307F70023
:1001A8001307F0FF23A0E700832784FE9387070542
:1001B8002324F4FE032784FE832704FEE342F7FC8E
:1001C80013000000130000000324C10213010103FF
:1001D80067800000130101FD232681021304010337
:1001E800232EA4FC232CB4FC8327C4FD83A707007B
:1001F8002326F4FE832784FD03A707008327C4FD75
:1002080023A0E700832784FD0327C4FE23A0E7007B
:10021800130000000324C1021301010367800000DA
:10022800130101FD23261102232481021304010373
:10023800232EA4FC232CB4FC232AC4FC2328D4FC9E
:10024800232604FE6F00C00F232404FE6F00000D58
:10025800832784FE939727000327C4FDB307F7007D
:1002680003A70700832784FE938717009397270027
:100278008326C4FDB387F60083A7070063DAE7087F
:10028800832784FE939727000327C4FDB306F7004E
:10029800832784FE93871700939727000327C4FDBD
:1002A800B307F7009385070013850600EFF09FF268
:1002B800832784FE939727000327C4FDB307F7001D
:1002C80083A70700832604FD032644FD832584FEB7
:1002D80013850700EFF01FE1832784FE938717003B
:1002E800939727000327C4FDB307F70003A7070068
:1002F800832784FE93871700832604FD032644FD85
:100308009385070013050700EFF0DFDDEFF05FD9F5
:10031800832784FE938717002324F4FE032784FD94
:100328008327C4FEB307F7409387F7FF032784FEAC
:10033800E340F7F28327C4FE938717002326F4FED1
:10034800832784FD9387F7FF0327C4FEE34EF7EE68
:1003580013000000130000008320C102032481025F
:100368001301010367800000130101FD2326110218
:100378002324810213040103232EA4FC232CB4FCA0
:10038800232AC4FC2328D4FC930710002326F4FE58
:100398006F0000128327C4FE939727000327C4FD2C
:1003A800B307F70083A707002322F4FE8327C4FEC0
:1003B8009387F7FF2324F4FE6F004007832784FE0A
:1003C800939727000327C4FD3307F700832784FE8C
:1003D80093871700939727008326C4FDB387F600F9
:1003E8000327070023A0E700832784FE93871700CD
:1003F800939727000327C4FDB307F70003A7070057
:10040800832784FE93871700832604FD032644FD73
:100418009385070013050700EFF0DFCCEFF05FC806
:10042800832784FE9387F7FF2324F4FE832784FE23
:1004380063C00702832784FE939727000327C4FD20
:10044800B307F70083A70700032744FEE348F7F63E
:10045800832784FE93871700939727000327C4FDFB
:10046800B307F700032744FE23A0E700832784FE91
:1004780093871700939727000327C4FDB307F70056
:1004880003A70700832784FE93871700832604FDAC
:10049800032644FD9385070013050700EFF09FC46A
:1004A800EFF01FC08327C4FE938717002326F4FEAE
:1004B8000327C4FE832784FDE34EF7EC13000000F6
:1004C800130000008320C1020324810213010103E9
:1004D80067800000130101F6232E1108232C8108E0
:1004E8001304010AB707C00083A707002324F4FCFC
:1004F800832784FC9387C7FF130770006364F76A38
:1005080013972700B707400093870712B307F70030
:1005180083A7070067800700EFF09FB8B707400080
:1005280013870700930704F6930607001307800450
:10053800130607009385060013850700EF00C066C1
:10054800930720012324F4FA232404FE6F00C00338
:10055800832784FE93972700130704FFB307F70048
:1005680003A707F7B7170000938607E113060000F3
:10057800832584FE13050700EFF0DFB6832784FE8A
:10058800938717002324F4FE032784FE832784FA25
:10059800E340F7FCEFF0DFB0130704F6B7170000ED
:1005A800938607E113060000832584FA13050700E4
:1005B800EFF01FC7EFF0DFAE6FF01FF6EFF05FAEA2
:1005C800B707400013878704930704F693060700CC
:1005D8001307800413060700938506001385070098
:1005E800EF00805C930720012326F4FA232204FEFF
:1005F8006F000004832744FE93972700130704FF26
:10060800B307F70003A707F7B7170000938607E1BA
:10061800B71700001386872E832544FE13050700AD
:10062800EFF05FAC832744FE938717002322F4FE84
:10063800032744FE8327C4FAE34EF7FAEFF05FA6D8
:10064800130704F6B7170000938607E1B7170000F1
:100658001386872E8325C4FA13050700EFF05FBCC5
:10066800EFF01FA46FF09FF5232604FE6F00C00B68
:100678008327C4FE13972700B7074003B307F70083
:100688001307F0FF23A0E7000327C4FEB7170000F5
:1006980093870796B307F70013972700B707400318
:1006A800938707ECB307F7001307F0FF23A0E700D1
:1006B8000327C4FEB71700009387072CB307F7007A
:1006C80013972700B7074003938707ECB307F70092
:1006D8001307F0FF23A0E7000327C4FEB727000095
:1006E800938707C2B307F70013972700B70740039C
:1006F800938707ECB307F7001307F0FF23A0E70081
:100708008327C4FE13972700B79740039387074CA6
:10071800B307F7001307F0FF23A0E7008327C4FE01
:10072800938717002326F4FE0327C4FE9307F004DB
:10073800E3D0E7F4232604FE6F0000090327C4FE74
:100748009307070093972700B387E70093976700FD
:1007580013870700B7074003B307F7001307F0FF35
:1007680023A0E7000327C4FE9307070093972700F9
:10077800B387E7009397670013870700B70740031D
:100788009387C709B307F7001307F0FF23A0E70013
:100798000327C4FE9307070093972700B387E70052
:1007A8009397670013870700B70740039387C7131A
:1007B800B307F7001307F0FF23A0E7008327C4FE61
:1007C800938717002326F4FE0327C4FE93077007B8
:1007D800E3D6E7F6EFF0DF8CB70740001387070989
:1007E800930704F69306070013078004130607000F
:1007F8009385060013850700EF00003B930720014F
:100808002328F4FA232004FE6F00C003832704FE84
:1008180093972700130704FFB307F70003A707F709
:10082800B7170000938607E113068002832504FEAC
:1008380013050700EFF01F8B832704FE938717002B
:100848002320F4FE032704FE832704FBE340F7FC80
:10085800EFF01F85130704F6B7170000938607E12A
:1008680013068002832504FB13050700EFF05F9B46
:10087800EFF01F836FF01FF6EFF09F82B70740007D
:100888001387870D930704F6930607001307800460
:10089800130607009385060013850700EF00C03094
:1008A80093072001232AF4FA232E04FC6F00000486
:1008B8008327C4FD93972700130704FFB307F700A6
:1008C80003A707F7B7170000938607E1B7170000DB
:1008D8001386072C8325C4FD13050700EFF09F80BE
:1008E8008327C4FD93871700232EF4FC0327C4FD38
:1008F800832744FBE34EF7FAEFF08FFA130704F669
:10090800B7170000938607E1B71700001386072C76
:10091800832544FB13050700EFF09F90EFF04FF895
:100928006FF09FF5EFF0CFF7B70740001387070088
:10093800930704F6930607001307800413060700BD
:100948009385060013850700EF0000269307200112
:10095800232CF4FA232C04FC6F008003832784FDE6
:1009680093972700130704FFB307F70083A707F738
:100978009306004B13060000832584FD13850700AA
:10098800EFF04FF6832784FD93871700232CF4FCA0
:10099800032784FD832784FBE342F7FCEFF04FF045
:1009A800930704F69306004B13060000832584FB87
:1009B80013850700EFF05F9BEFF08FEE6FF09FF667
:1009C800EFF00FEEB707400013878704930704F68C
:1009D8009306070013078004130607009385060093
:1009E80013850700EF00401C93072001232EF4FA1B
:1009F800232A04FC6F00C003832744FD9397270034
:100A0800130704FFB307F70003A707F79306004B84
:100A1800B71700001386872E832544FD13050700AA
:100A2800EFF04FEC832744FD93871700232AF4FC4B
:100A3800032744FD8327C4FBE340F7FCEFF04FE6B0
:100A4800130704F69306004BB71700001386872E8A
:100A58008325C4FB13050700EFF01F91EFF04FE467
:100A68006FF01FF6EFF0CFE3B707400013870709D1
:100A7800930704F69306070013078004130607007C
:100A88009385060013850700EF00001293072001E5
:100A98002320F4FC232804FC6F008003832704FD33
:100AA80093972700130704FFB307F70083A707F7F7
:100AB8009306004B13068002832504FD1385070067
:100AC800EFF04FE2832704FD938717002328F4FCF7
:100AD800032704FD832704FCE342F7FCEFF04FDC17
:100AE800930704F69306004B13068002832504FC43
:100AF80013850700EFF05F87EFF08FDA6FF09FF64E
:100B0800EFF00FDAB70740001387870D930704F655
:100B18009306070013078004130607009385060051
:100B280013850700EF004008930720012322F4FCF7
:100B3800232604FC6F00C0038327C4FC9397270077
:100B4800130704FFB307F70003A707F79306004B43
:100B5800B71700001386072C8325C4FC130507006C
:100B6800EFF04FD88327C4FC938717002326F4FCA3
:100B78000327C4FC832744FCE340F7FCEFF04FD283
:100B8800130704F69306004BB71700001386072CCB
:100B9800832544FC13050700EFF00FFDEFF04FD05D
:100BA8006FF01FF66F000000B3C7A50093F737007A
:100BB800B308C500639607069307300063F2C706BB
:100BC8009377350013070500639A070C13F6C8FFDF
:100BD800B306E640930700029302000263C2D706F9
:100BE80093860500930707006378C70203A80600E9
:100BF800938747009386460023AE07FFE3E8C7FEC6
:100C08009307F6FFB387E74093F7C7FF938747003B
:100C18003307F700B385F5006368170167800000A4
:100C280013070500E37C15FF83C7050013071700AA
:100C380093851500A30FF7FEE36817FF6780000090
:100C480083A6450083A7C50183AF050003AF8500D0
:100C580083AEC50003AE050103A3450103A88501C2
:100C68002322D70083A605022320F7012324E701C6
:100C78002326D7012328C701232A6700232C07012D
:100C8800232EF70013074702B307E640232ED7FEAB
:100C980093854502E3C6F2FA6FF09FF483C6050018
:100CA8001307170093773700A30FD7FE9385150016
:100CB800E38E07F083C60500130717009377370004
:100CC800A30FD7FE93851500E39A07FC6FF01FF07A
:020000040040BA
:100000000B00000005000000090000000D000000CA
:1000100012000000070000000100000002000000C4
:100020000C0000000A0000000400000003000000B3
:100030000E000000060000000F000000110000008C
:100040000800000010000000010000000200000095
:10005000030000000400000005000000060000008E
:100060000D0000000E0000000F0000001000000056
:10007000110000001200000007000000080000004E
:10008000090000000A0000000B0000000C00000046
:100090001200000011000000100000000F0000001E
:1000A0000E0000000D0000000C0000000B0000001E
:1000B0000A0000000900000008000000070000001E
:1000C000060000000500000004000000030000001E
:1000D0000200000001000000020000000300000018
:1000E00004000000050000000600000007000000FA
:1000F00008000000090000000A0000000B000000DA
:100100000C0000000D0000000E0000000F000000B9
:1001100010000000110000001200000001000000AB
:1001200020050000C40500007006000080080000E3
:100130002C090000C80900006C0A0000080B000030
:04000003000000A851
:00000001FF
