:1000000013000000130000001300000013000000A4
:10001000130000006F0040009300000013810000F7
:10002000938100001382000093820000138300007C
:100030009383000013840000938400001385000064
:10004000938500001386000093860000138700004C
:100050009387000013880000938800001389000034
:1000600093890000138A0000938A0000138B00001C
:10007000938B0000138C0000938C0000138D000004
:10008000938D0000138E0000938E0000138F0000EC
:10009000938F0000B702C0009382C20003A1020048
:0800A000EF00807B73001000EB
:1000A800130101FD232681021304010393070500B0
:1000B800232CB4FC232AC4FCA30FF4FC032784FDDF
:1000C8009307070093972700B387E7009397670084
:1000D8002326F4FE832744FD939727002324F4FE68
:1000E800032784FE8327C4FE3307F700B7074003BE
:1000F800B307F7002322F4FE032784FE8327C4FEF8
:100108003307F700B707400393870714B307F700CF
:100118002320F4FE8347F4FD370740001307C72068
:1001280093972700B307F70083A7070013870700F3
:10013800832744FE23A0E7008347F4FD37074000E8
:100148001307073993972700B307F70083A707001A
:1001580013870700832704FE23A0E700130000008D
:100168000324C1021301010367800000130101FD8C
:10017800232611022324810213040103232EA4FC45
:10018800232604FE232404FE232204FEB707C0000E
:100198009387072283A707002322F4FEB707C0002E
:1001A8009387472383A707002324F4FE6F00800B5F
:1001B8008327C4FE0327C4FDB307F70003C707005E
:1001C8009307A000631AF702232204FE832784FE04
:1001D800938727002324F4FE032784FE93078007D0
:1001E8006314F700232404FE8327C4FE93871700B3
:1001F8002326F4FE6F0000078327C4FE0327C4FDEF
:10020800B307F70083C70700032784FE832644FE4D
:10021800138606009305070013850700EFF05FE8D3
:10022800832744FE938717002322F4FE032744FE06
:10023800930700056312F702232204FE832784FE36
:10024800938727002324F4FE032784FE930780075F
:100258006314F700232404FE8327C4FE9387170042
:100268002326F4FE8327C4FE0327C4FDB307F70043
:1002780083C70700E39E07F2B707C00093870722EA
:10028800032744FE23A0E700B707C000938747234E
:10029800032784FE23A0E700130000008320C10287
:1002A800032481021301010367800000130101FD8B
:1002B8002326810213040103232EA4FC232CB4FC5F
:1002C800232AC4FC032784FD93070700939727007C
:1002D800B387E700939767002326F4FE832744FD3E
:1002E800939727002324F4FE032784FE8327C4FE64
:1002F8003307F700B7074003B307F7002322F4FEDC
:10030800032784FE8327C4FE3307F700B70740039B
:1003180093870714B307F7002320F4FEB7074000BC
:10032800138747518327C4FD93972700B307F70026
:1003380083A7070013870700832744FE23A0E7004D
:10034800B7074000138787528327C4FD9397270078
:10035800B307F70083A7070013870700832704FE66
:1003680023A0E700130000000324C10213010103C6
:1003780067800000130101FE232E8100130401028F
:100388002326A4FE2324B4FEB707C00093870722C0
:10039800032784FE23A0E700B707C00093874723FD
:1003A8000327C4FE23A0E700130000000324C101B3
:1003B8001301010267800000130101FE232E810052
:1003C80013040102232604FEB70740032324F4FE86
:1003D800232604FE6F0040028327C4FE939727005C
:1003E800032784FEB307F70023A007008327C4FE72
:1003F800938717002326F4FE0327C4FEB7270000BF
:100408009387F757E3DAE7FC1300000013000000B6
:100418000324C1011301010267800000130101FEDA
:10042800232E810013040102232604FE6F0000011D
:100438008327C4FE938717002326F4FE0327C4FEF0
:10044800B74701009387F787E3D4E7FE130000005E
:10045800130000000324C10113010102678000009A
:10046800130101FD2326810213040103232EA4FC9A
:10047800232CB4FC232AC4FC2328D4FC832784FD22
:100488009387171493971700032744FDB307F700C2
:100498002322F4FE0327C4FD930707009397270040
:1004A800B387E70093974700938717002320F4FE4C
:1004B800232604FE6F004003032744FE8327C4FE5F
:1004C8003307F740832704FDB307F7001397270086
:1004D800B7074003B307F70023A007008327C4FE2C
:1004E800938707052326F4FE0327C4FE93070064B9
:1004F800E3D4E7FC232404FE6F008003032744FEB3
:10050800832784FE3307F740832704FDB307F700EA
:1005180013972700B7074003B307F7001307F0FF47
:1005280023A0E700832784FE938707052324F4FE8E
:10053800032784FE832704FEE342F7FC1300000030
:10054800130000000324C1021301010367800000A7
:10055800130101FD2326810213040103232EA4FCA9
:10056800232CB4FC8327C4FD83A707002326F4FEAD
:10057800832784FD03A707008327C4FD23A0E70082
:10058800832784FD0327C4FE23A0E700130000008F
:100598000324C1021301010367800000130101FD58
:1005A800232611022324810213040103232EA4FC11
:1005B800232CB4FC232AC4FC2328D4FC232604FEC1
:1005C8006F00C00F232404FE6F00000D832784FEF4
:1005D800939727000327C4FDB307F70003A7070075
:1005E800832784FE93871700939727008326C4FDEB
:1005F800B387F60083A7070063DAE708832784FE3A
:10060800939727000327C4FDB306F700832784FECA
:1006180093871700939727000327C4FDB307F700B4
:100628009385070013850600EFF09FF2832784FE69
:10063800939727000327C4FDB307F70083A7070094
:10064800832604FD032644FD832584FE13850700C5
:10065800EFF01FE1832784FE938717009397270005
:100668000327C4FDB307F70003A70700832784FE09
:1006780093871700832604FD032644FD938507000E
:1006880013050700EFF0DFDDEFF05FD9832784FE65
:10069800938717002324F4FE032784FD8327C4FED1
:1006A800B307F7409387F7FF032784FEE340F7F289
:1006B8008327C4FE938717002326F4FE832784FD2F
:1006C8009387F7FF0327C4FEE34EF7EE13000000FD
:1006D800130000008320C1020324810213010103D7
:1006E80067800000130101FD2326110223248102E3
:1006F80013040103232EA4FC232CB4FC232AC4FCDA
:100708002328D4FC930710002326F4FE6F00001260
:100718008327C4FE939727000327C4FDB307F70078
:1007280083A707002322F4FE8327C4FE9387F7FFDD
:100738002324F4FE6F004007832784FE9397270045
:100748000327C4FD3307F700832784FE9387170028
:10075800939727008326C4FDB387F6000327070075
:1007680023A0E700832784FE938717009397270029
:100778000327C4FDB307F70003A70700832784FEF8
:1007880093871700832604FD032644FD93850700FD
:1007980013050700EFF0DFCCEFF05FC8832784FE76
:1007A8009387F7FF2324F4FE832784FE63C00702A0
:1007B800832784FE939727000327C4FDB307F70018
:1007C80083A70700032744FEE348F7F6832784FE40
:1007D80093871700939727000327C4FDB307F700F3
:1007E800032744FE23A0E700832784FE938717008E
:1007F800939727000327C4FDB307F70003A7070053
:10080800832784FE93871700832604FD032644FD6F
:100818009385070013050700EFF09FC4EFF01FC092
:100828008327C4FE938717002326F4FE0327C4FEFC
:10083800832784FDE34EF7EC13000000130000004B
:100848008320C10203248102130101036780000091
:10085800130101F6232E1108232C81081304010A21
:10086800B707C00083A707002324F4FC832784FC70
:100878009387C7FF130770006366F77613972700FF
:10088800B70740009387C71EB307F70083A7070081
:1008980067800700EFF09FB8930510001305E0018B
:1008A800EFF05FADB707400013850700EFF01F8C2E
:1008B800B70740001387C70C930704F69306070091
:1008C80013078004130607009385060013850700A5
:1008D800EF008071930720012324F4FA232404FEF7
:1008E8006F00C003832784FE93972700130704FF34
:1008F800B307F70003A707F7B7170000938607E1C8
:1009080013060000832584FE13050700EFF05FB58A
:10091800832784FE938717002324F4FE032784FE8D
:10092800832784FAE340F7FCEFF05FAF130704F680
:10093800B7170000938607E113060000832584FAA1
:1009480013050700EFF09FC5EFF05FAD6FF09FF460
:10095800EFF0DFAC930580021305A005EFF09FA12F
:10096800B707400013854701EFF05F80B7074000E5
:1009780013874711930704F69306070013078004AB
:10098800130607009385060013850700EF00C0656E
:10099800930720012326F4FA232204FE6F000004A3
:1009A800832744FE93972700130704FFB307F70034
:1009B80003A707F7B7170000938607E1B7170000EA
:1009C8001386872E832544FE13050700EFF05FA9E1
:1009D800832744FE938717002322F4FE032744FE4F
:1009E8008327C4FAE34EF7FAEFF05FA3130704F680
:1009F800B7170000938607E1B71700001386872E04
:100A08008325C4FA13050700EFF05FB9EFF01FA1C3
:100A18006FF01FF4232604FE6F00C00B8327C4FE6B
:100A280013972700B7074003B307F7001307F0FF32
:100A380023A0E7000327C4FEB71700009387079693
:100A4800B307F70013972700B7074003938707EC0E
:100A5800B307F7001307F0FF23A0E7000327C4FE3E
:100A6800B71700009387072CB307F70013972700E1
:100A7800B7074003938707ECB307F7001307F0FFA6
:100A880023A0E7000327C4FEB7270000938707C207
:100A9800B307F70013972700B7074003938707ECBE
:100AA800B307F7001307F0FF23A0E7008327C4FE6E
:100AB80013972700B79740039387074CB307F700AE
:100AC8001307F0FF23A0E7008327C4FE93871700CE
:100AD8002326F4FE0327C4FE9307F004E3D0E7F4CB
:100AE800232604FE6F0000090327C4FE93070700AE
:100AF80093972700B387E70093976700138707004A
:100B0800B7074003B307F7001307F0FF23A0E70078
:100B18000327C4FE9307070093972700B387E700CE
:100B28009397670013870700B70740039387C709A0
:100B3800B307F7001307F0FF23A0E7000327C4FE5D
:100B48009307070093972700B387E70093976700F9
:100B580013870700B70740039387C713B307F70046
:100B68001307F0FF23A0E7008327C4FE938717002D
:100B78002326F4FE0327C4FE93077007E3D6E7F69F
:100B8800EFF0DF89930580021305E001EFF08FFE97
:100B9800B70740001385C702EFF04FDDB7074000E5
:100BA8001387C715930704F69306070013078004F5
:100BB800130607009385060013850700EF00C0425F
:100BC800930720012328F4FA232004FE6F00C003B2
:100BD800832704FE93972700130704FFB307F70042
:100BE80003A707F7B7170000938607E113068002EB
:100BF800832504FE13050700EFF09F86832704FE74
:100C0800938717002320F4FE032704FE832704FBA1
:100C1800E340F7FCEFF09F80130704F6B7170000D6
:100C2800938607E113068002832504FB130507005A
:100C3800EFF0DF96EFF08FFE6FF09FF4EFF00FFE0E
:100C4800EFF0CFFD930510001305A005EFF08FF22C
:100C5800B707400013854704EFF04FD1B7074000AE
:100C68001387471A930704F69306070013078004AF
:100C7800130607009385060013850700EF00C036AA
:100C880093072001232AF4FA232E04FC6F000004A2
:100C98008327C4FD93972700130704FFB307F700C2
:100CA80003A707F7B7170000938607E1B7170000F7
:100CB8001386072C8325C4FD13050700EFF04FFAB0
:100CC8008327C4FD93871700232EF4FC0327C4FD54
:100CD800832744FBE34EF7FAEFF04FF4130704F6CB
:100CE800B7170000938607E1B71700001386072C93
:100CF800832544FB13050700EFF05F8AEFF00FF23E
:100D08006FF0DFF3EFF08FF193051000130510007B
:100D1800EFF04FE6B707400013850706EFF00FC561
:100D2800B70740001387C70C930704F6930607001C
:100D38001307800413060700938506001385070030
:100D4800EF00802A93072001232CF4FA232C04FCBB
:100D58006F008003832784FD93972700130704FF00
:100D6800B307F70083A707F79306004B13060000A5
:100D7800832584FD13850700EFF08FEE832784FD1C
:100D880093871700232CF4FC032784FD832784FB17
:100D9800E342F7FCEFF08FE8930704F69306004B65
:100DA80013060000832584FB13850700EFF09F934B
:100DB800EFF0CFE66FF01FF5EFF04FE693058002F6
:100DC8001305C003EFF00FDBB70740001385870753
:100DD800EFF0CFB9B707400013874711930704F620
:100DE800930607001307800413060700938506007F
:100DF80013850700EF00401F93072001232EF4FA04
:100E0800232A04FC6F00C003832744FD939727001F
:100E1800130704FFB307F70003A707F79306004B70
:100E2800B71700001386872E832544FD1305070096
:100E3800EFF00FE3832744FD93871700232AF4FC80
:100E4800032744FD8327C4FBE340F7FCEFF00FDDE5
:100E5800130704F69306004BB71700001386872E76
:100E68008325C4FB13050700EFF0DF87EFF00FDBE6
:100E78006FF09FF4EFF08FDA9305800213051000EE
:100E8800EFF04FCFB707400013854709EFF00FAEDB
:100E9800B70740001387C715930704F693060700A2
:100EA80013078004130607009385060013850700BF
:100EB800EF008013930720012320F4FC232804FC6F
:100EC8006F008003832704FD93972700130704FF0F
:100ED800B307F70083A707F79306004B13068002B2
:100EE800832504FD13850700EFF08FD7832704FDC2
:100EF800938717002328F4FC032704FD832704FCA9
:100F0800E342F7FCEFF08FD1930704F69306004B0A
:100F180013068002832504FC13850700EFF08FFC7D
:100F2800EFF0CFCF6FF01FF5EFF04FCF9305100024
:100F38001305C003EFF00FC4B70740001385C70AB5
:100F4800EFF0CFA2B70740001387471A930704F6BC
:100F5800930607001307800413060700938506000D
:100F680013850700EF004008930720012322F4FCB3
:100F7800232604FC6F00C0038327C4FC9397270033
:100F8800130704FFB307F70003A707F79306004BFF
:100F9800B71700001386072C8325C4FC1305070028
:100FA800EFF00FCC8327C4FC938717002326F4FCAB
:100FB8000327C4FC832744FCE340F7FCEFF00FC68B
:100FC800130704F69306004BB71700001386072C87
:100FD800832544FC13050700EFF0CFF0EFF00FC4B2
:100FE8006FF09FF46F000000B3C7A50093F73700B8
:100FF800B308C500639607069307300063F2C70677
:101008009377350013070500639A070C13F6C8FF9A
:10101800B306E640930700029302000263C2D706B4
:1010280093860500930707006378C70203A80600A4
:10103800938747009386460023AE07FFE3E8C7FE81
:101048009307F6FFB387E74093F7C7FF93874700F7
:101058003307F700B385F500636817016780000060
:1010680013070500E37C15FF83C705001307170066
:1010780093851500A30FF7FEE36817FF678000004C
:1010880083A6450083A7C50183AF050003AF85008C
:1010980083AEC50003AE050103A3450103A885017E
:1010A8002322D70083A605022320F7012324E70182
:1010B8002326D7012328C701232A6700232C0701E9
:1010C800232EF70013074702B307E640232ED7FE67
:1010D80093854502E3C6F2FA6FF09FF483C60500D4
:1010E8001307170093773700A30FD7FE93851500D2
:1010F800E38E07F083C605001307170093773700C0
:10110800A30FD7FE93851500E39A07FC6FF01FF035
:020000040040BA
:10000000425542424C4520534F52542052414E4497
:100010004F4D0A00425542424C4520534F52542006
:100020003320554E495155450A0000004255424281
:100030004C4520534F525420524556455253450A81
:1000400000000000425542424C4520534F5254207C
:10005000414C4D4F535420534F525445440A0000D5
:10006000494E53455254494F4E20534F52542052FB
:10007000414E444F4D0A0000494E53455254494F9A
:100080004E20534F5254203320554E495155450A66
:1000900000000000494E53455254494F4E20534FE3
:1000A000525420524556455253450A00494E534535
:1000B0005254494F4E20534F525420414C4D4F53B0
:1000C0005420534F525445442E0A00000B000000A8
:1000D00005000000090000000D00000012000000F3
:1000E0000700000001000000020000000C000000FA
:1000F0000A00000004000000030000000E000000E1
:10010000060000000F0000001100000008000000C1
:100110001000000006000000120000000C000000AB
:100120000C00000006000000120000001200000099
:1001300006000000060000000C0000000C0000009B
:10014000120000000600000012000000060000007F
:100150000C000000120000000C0000001200000063
:1001600011000000100000000F0000000E00000051
:100170000D0000000C0000000B0000000A00000051
:100180000900000008000000070000000600000051
:100190000500000004000000030000000200000051
:1001A0000100000002000000030000000400000045
:1001B0000500000006000000070000000800000025
:1001C000090000000A0000000B0000000C00000005
:1001D0000D0000000E0000000F00000010000000E5
:1001E0001100000012000000010000009C08000047
:1001F000580900001C0A0000440C00000C0D00000F
:0C020000C00D00007C0E0000300F00005C
:10020C0000000000000000000000000000000000E2
:10021C0000000000000000000000000000000000D2
:10022C0000000000000000000000000000000000C2
:10023C0000000000000000000000000000000000B2
:10024C0000000000000000000000000000000000A2
:10025C000000000000000000000000000000000092
:10026C000000000000000000000000000000000082
:10027C000000000000000000000000000000000072
:10028C000000000000000000000000000000000062
:10029C000000000000000000000000000000000052
:1002AC000000000000000000000000000000000042
:1002BC000000000000000000000000000000000032
:1002CC00003C625200181C1A003C4240003C424068
:1002DC0000302824007E023E003C4202007E40306A
:1002EC00003C4242003C4242000000000000000082
:1002FC0000000000000000000000000000000000F2
:10030C000000000000183C66001E223E003C3E022D
:10031C00001E3E22007E0606007E0606003C3E02C3
:10032C0000666666007E1818006060600046663ED7
:10033C00000606060042665A0062666E003C66665F
:10034C00003E6666003C4242003E6666007C061E2D
:10035C00007E1818006666660066666600424242B9
:10036C000066663C0066663C007E201000000000C3
:10037C000000000000000000000000000000000071
:10038C000000000000000000000000000000000061
:10039C000000000000000000000000000000000051
:1003AC000000000000000000000000000000000041
:1003BC000000000000000000000000000000000031
:1003CC000000000000000000000000000000000021
:1003DC000000000000000000000000000000000011
:1003EC000000000000000000000000000000000001
:1003FC0000000000000000000000000000000000F1
:10040C0000000000000000000000000000000000E0
:10041C0000000000000000000000000000000000D0
:10042C0000000000000000000000000000000000C0
:10043C000000000018181E0600000000001818002C
:10044C00000000004A463C0018187E003C027E006A
:10045C0038423C007E20200040423C003E423C00A2
:10046C00080808003C423C007C403E0000000000B4
:10047C000000000000000000000000000000000070
:10048C000000000000000000667E66003E221E0098
:10049C00023E3C00223E1E007E067E007E060600CA
:1004AC003A223C007E66660018187E0066667C0068
:1004BC003E66460006067E005A42420076664600BC
:1004CC0066663C003E06060052627C003E66660094
:1004DC0078603E0018181800667E3C00663C1800D8
:1004EC005A7E42003C6666001818180008047E000C
:1004FC0000000000000000000000000000000000F0
:10050C0000000000000000003010387C301038383B
:10051C00301038383010387C30103838BA48848273
:10052C0078AC484478282810BA3810287C384848C9
:04000003000000A851
:00000001FF
